{
  "_format": "hh-sol-artifact-1",
  "contractName": "TestUniswap",
  "sourceName": "contracts/Swap.sol",
  "abi": [
    {
      "inputs": [
        {
          "internalType": "address",
          "name": "_tokenIn",
          "type": "address"
        },
        {
          "internalType": "address",
          "name": "_tokenOut",
          "type": "address"
        },
        {
          "internalType": "uint256",
          "name": "_amountIn",
          "type": "uint256"
        },
        {
          "internalType": "uint256",
          "name": "_amountOutMin",
          "type": "uint256"
        },
        {
          "internalType": "address",
          "name": "_to",
          "type": "address"
        }
      ],
      "name": "swap",
      "outputs": [],
      "stateMutability": "nonpayable",
      "type": "function"
    }
  ],
  "bytecode": "0x608060405234801561001057600080fd5b50610a45806100206000396000f3fe608060405234801561001057600080fd5b506004361061002b5760003560e01c8063d5bcb9b514610030575b600080fd5b61004a600480360381019061004591906105f6565b61004c565b005b8473ffffffffffffffffffffffffffffffffffffffff166323b872dd3330866040518463ffffffff1660e01b81526004016100899392919061078a565b602060405180830381600087803b1580156100a357600080fd5b505af11580156100b7573d6000803e3d6000fd5b505050506040513d601f19601f820116820180604052508101906100db91906106ba565b508473ffffffffffffffffffffffffffffffffffffffff1663095ea7b3737a250d5630b4cf539739df2c5dacb4c659f2488d856040518363ffffffff1660e01b815260040161012b9291906107c1565b602060405180830381600087803b15801561014557600080fd5b505af1158015610159573d6000803e3d6000fd5b505050506040513d601f19601f8201168201806040525081019061017d91906106ba565b50606073c02aaa39b223fe8d0a0e5c4f27ead9083c756cc273ffffffffffffffffffffffffffffffffffffffff168673ffffffffffffffffffffffffffffffffffffffff16148061020d575073c02aaa39b223fe8d0a0e5c4f27ead9083c756cc273ffffffffffffffffffffffffffffffffffffffff168573ffffffffffffffffffffffffffffffffffffffff16145b1561030157600267ffffffffffffffff81111561022d5761022c610976565b5b60405190808252806020026020018201604052801561025b5781602001602082028036833780820191505090505b509050858160008151811061027357610272610947565b5b602002602001019073ffffffffffffffffffffffffffffffffffffffff16908173ffffffffffffffffffffffffffffffffffffffff168152505084816001815181106102c2576102c1610947565b5b602002602001019073ffffffffffffffffffffffffffffffffffffffff16908173ffffffffffffffffffffffffffffffffffffffff168152505061044f565b600367ffffffffffffffff81111561031c5761031b610976565b5b60405190808252806020026020018201604052801561034a5781602001602082028036833780820191505090505b509050858160008151811061036257610361610947565b5b602002602001019073ffffffffffffffffffffffffffffffffffffffff16908173ffffffffffffffffffffffffffffffffffffffff168152505073c02aaa39b223fe8d0a0e5c4f27ead9083c756cc2816001815181106103c5576103c4610947565b5b602002602001019073ffffffffffffffffffffffffffffffffffffffff16908173ffffffffffffffffffffffffffffffffffffffff1681525050848160028151811061041457610413610947565b5b602002602001019073ffffffffffffffffffffffffffffffffffffffff16908173ffffffffffffffffffffffffffffffffffffffff16815250505b737a250d5630b4cf539739df2c5dacb4c659f2488d73ffffffffffffffffffffffffffffffffffffffff166338ed173985858486426040518663ffffffff1660e01b81526004016104a49594939291906107ea565b600060405180830381600087803b1580156104be57600080fd5b505af11580156104d2573d6000803e3d6000fd5b505050506040513d6000823e3d601f19601f820116820180604052508101906104fb9190610671565b50505050505050565b600061051761051284610869565b610844565b9050808382526020820190508285602086028201111561053a576105396109aa565b5b60005b8581101561056a578161055088826105e1565b84526020840193506020830192505060018101905061053d565b5050509392505050565b600081359050610583816109ca565b92915050565b600082601f83011261059e5761059d6109a5565b5b81516105ae848260208601610504565b91505092915050565b6000815190506105c6816109e1565b92915050565b6000813590506105db816109f8565b92915050565b6000815190506105f0816109f8565b92915050565b600080600080600060a08688031215610612576106116109b4565b5b600061062088828901610574565b955050602061063188828901610574565b9450506040610642888289016105cc565b9350506060610653888289016105cc565b925050608061066488828901610574565b9150509295509295909350565b600060208284031215610687576106866109b4565b5b600082015167ffffffffffffffff8111156106a5576106a46109af565b5b6106b184828501610589565b91505092915050565b6000602082840312156106d0576106cf6109b4565b5b60006106de848285016105b7565b91505092915050565b60006106f383836106ff565b60208301905092915050565b610708816108ce565b82525050565b610717816108ce565b82525050565b6000610728826108a5565b61073281856108bd565b935061073d83610895565b8060005b8381101561076e57815161075588826106e7565b9750610760836108b0565b925050600181019050610741565b5085935050505092915050565b6107848161090c565b82525050565b600060608201905061079f600083018661070e565b6107ac602083018561070e565b6107b9604083018461077b565b949350505050565b60006040820190506107d6600083018561070e565b6107e3602083018461077b565b9392505050565b600060a0820190506107ff600083018861077b565b61080c602083018761077b565b818103604083015261081e818661071d565b905061082d606083018561070e565b61083a608083018461077b565b9695505050505050565b600061084e61085f565b905061085a8282610916565b919050565b6000604051905090565b600067ffffffffffffffff82111561088457610883610976565b5b602082029050602081019050919050565b6000819050602082019050919050565b600081519050919050565b6000602082019050919050565b600082825260208201905092915050565b60006108d9826108ec565b9050919050565b60008115159050919050565b600073ffffffffffffffffffffffffffffffffffffffff82169050919050565b6000819050919050565b61091f826109b9565b810181811067ffffffffffffffff8211171561093e5761093d610976565b5b80604052505050565b7f4e487b7100000000000000000000000000000000000000000000000000000000600052603260045260246000fd5b7f4e487b7100000000000000000000000000000000000000000000000000000000600052604160045260246000fd5b600080fd5b600080fd5b600080fd5b600080fd5b6000601f19601f8301169050919050565b6109d3816108ce565b81146109de57600080fd5b50565b6109ea816108e0565b81146109f557600080fd5b50565b610a018161090c565b8114610a0c57600080fd5b5056fea264697066735822122013d45695b057ffe4a27f78b586993a93639b126ac94cbdeddbf5ef70b2b21e9964736f6c63430008070033",
  "linkReferences": {},
  "deployedLinkReferences": {}
}