{
  "_format": "hh-sol-artifact-1",
  "contractName": "CentralizedStableCoin",
  "sourceName": "contracts/stablecoins/CentralizedStableCoin.sol",
  "abi": [
    {
      "inputs": [
        {
          "internalType": "uint256",
          "name": "initialSupply",
          "type": "uint256"
        }
      ],
      "stateMutability": "nonpayable",
      "type": "constructor"
    },
    {
      "inputs": [],
      "name": "CentralizedStableCoin__AddressBlacklisted",
      "type": "error"
    },
    {
      "inputs": [],
      "name": "CentralizedStableCoin__AmountMustBeMoreThanZero",
      "type": "error"
    },
    {
      "inputs": [],
      "name": "CentralizedStableCoin__BurnAmountExceedsBalance",
      "type": "error"
    },
    {
      "inputs": [],
      "name": "CentralizedStableCoin__ExceededMinterAllowance",
      "type": "error"
    },
    {
      "inputs": [],
      "name": "CentralizedStableCoin__NotMinter",
      "type": "error"
    },
    {
      "inputs": [],
      "name": "CentralizedStableCoin__NotZeroAddress",
      "type": "error"
    },
    {
      "anonymous": false,
      "inputs": [
        {
          "indexed": true,
          "internalType": "address",
          "name": "owner",
          "type": "address"
        },
        {
          "indexed": true,
          "internalType": "address",
          "name": "spender",
          "type": "address"
        },
        {
          "indexed": false,
          "internalType": "uint256",
          "name": "value",
          "type": "uint256"
        }
      ],
      "name": "Approval",
      "type": "event"
    },
    {
      "anonymous": false,
      "inputs": [
        {
          "indexed": true,
          "internalType": "address",
          "name": "_account",
          "type": "address"
        }
      ],
      "name": "Blacklisted",
      "type": "event"
    },
    {
      "anonymous": false,
      "inputs": [
        {
          "indexed": true,
          "internalType": "address",
          "name": "minter",
          "type": "address"
        },
        {
          "indexed": false,
          "internalType": "uint256",
          "name": "minterAllowedAmount",
          "type": "uint256"
        }
      ],
      "name": "MinterConfigured",
      "type": "event"
    },
    {
      "anonymous": false,
      "inputs": [
        {
          "indexed": true,
          "internalType": "address",
          "name": "oldMinter",
          "type": "address"
        }
      ],
      "name": "MinterRemoved",
      "type": "event"
    },
    {
      "anonymous": false,
      "inputs": [
        {
          "indexed": true,
          "internalType": "address",
          "name": "previousOwner",
          "type": "address"
        },
        {
          "indexed": true,
          "internalType": "address",
          "name": "newOwner",
          "type": "address"
        }
      ],
      "name": "OwnershipTransferred",
      "type": "event"
    },
    {
      "anonymous": false,
      "inputs": [
        {
          "indexed": true,
          "internalType": "address",
          "name": "from",
          "type": "address"
        },
        {
          "indexed": true,
          "internalType": "address",
          "name": "to",
          "type": "address"
        },
        {
          "indexed": false,
          "internalType": "uint256",
          "name": "value",
          "type": "uint256"
        }
      ],
      "name": "Transfer",
      "type": "event"
    },
    {
      "anonymous": false,
      "inputs": [
        {
          "indexed": true,
          "internalType": "address",
          "name": "_account",
          "type": "address"
        }
      ],
      "name": "UnBlacklisted",
      "type": "event"
    },
    {
      "inputs": [
        {
          "internalType": "address",
          "name": "owner",
          "type": "address"
        },
        {
          "internalType": "address",
          "name": "spender",
          "type": "address"
        }
      ],
      "name": "allowance",
      "outputs": [
        {
          "internalType": "uint256",
          "name": "",
          "type": "uint256"
        }
      ],
      "stateMutability": "view",
      "type": "function"
    },
    {
      "inputs": [
        {
          "internalType": "address",
          "name": "spender",
          "type": "address"
        },
        {
          "internalType": "uint256",
          "name": "value",
          "type": "uint256"
        }
      ],
      "name": "approve",
      "outputs": [
        {
          "internalType": "bool",
          "name": "",
          "type": "bool"
        }
      ],
      "stateMutability": "nonpayable",
      "type": "function"
    },
    {
      "inputs": [
        {
          "internalType": "address",
          "name": "account",
          "type": "address"
        }
      ],
      "name": "balanceOf",
      "outputs": [
        {
          "internalType": "uint256",
          "name": "",
          "type": "uint256"
        }
      ],
      "stateMutability": "view",
      "type": "function"
    },
    {
      "inputs": [
        {
          "internalType": "address",
          "name": "_account",
          "type": "address"
        }
      ],
      "name": "blacklist",
      "outputs": [],
      "stateMutability": "nonpayable",
      "type": "function"
    },
    {
      "inputs": [
        {
          "internalType": "uint256",
          "name": "_amount",
          "type": "uint256"
        }
      ],
      "name": "burn",
      "outputs": [],
      "stateMutability": "nonpayable",
      "type": "function"
    },
    {
      "inputs": [
        {
          "internalType": "address",
          "name": "account",
          "type": "address"
        },
        {
          "internalType": "uint256",
          "name": "amount",
          "type": "uint256"
        }
      ],
      "name": "burnFrom",
      "outputs": [],
      "stateMutability": "nonpayable",
      "type": "function"
    },
    {
      "inputs": [
        {
          "internalType": "address",
          "name": "minter",
          "type": "address"
        },
        {
          "internalType": "uint256",
          "name": "minterAllowedAmount",
          "type": "uint256"
        }
      ],
      "name": "configureMinter",
      "outputs": [
        {
          "internalType": "bool",
          "name": "",
          "type": "bool"
        }
      ],
      "stateMutability": "nonpayable",
      "type": "function"
    },
    {
      "inputs": [],
      "name": "decimals",
      "outputs": [
        {
          "internalType": "uint8",
          "name": "",
          "type": "uint8"
        }
      ],
      "stateMutability": "view",
      "type": "function"
    },
    {
      "inputs": [
        {
          "internalType": "address",
          "name": "spender",
          "type": "address"
        },
        {
          "internalType": "uint256",
          "name": "subtractedValue",
          "type": "uint256"
        }
      ],
      "name": "decreaseAllowance",
      "outputs": [
        {
          "internalType": "bool",
          "name": "",
          "type": "bool"
        }
      ],
      "stateMutability": "nonpayable",
      "type": "function"
    },
    {
      "inputs": [
        {
          "internalType": "address",
          "name": "spender",
          "type": "address"
        },
        {
          "internalType": "uint256",
          "name": "addedValue",
          "type": "uint256"
        }
      ],
      "name": "increaseAllowance",
      "outputs": [
        {
          "internalType": "bool",
          "name": "",
          "type": "bool"
        }
      ],
      "stateMutability": "nonpayable",
      "type": "function"
    },
    {
      "inputs": [
        {
          "internalType": "address",
          "name": "_account",
          "type": "address"
        }
      ],
      "name": "isBlacklisted",
      "outputs": [
        {
          "internalType": "bool",
          "name": "",
          "type": "bool"
        }
      ],
      "stateMutability": "view",
      "type": "function"
    },
    {
      "inputs": [
        {
          "internalType": "address",
          "name": "_to",
          "type": "address"
        },
        {
          "internalType": "uint256",
          "name": "_amount",
          "type": "uint256"
        }
      ],
      "name": "mint",
      "outputs": [
        {
          "internalType": "bool",
          "name": "",
          "type": "bool"
        }
      ],
      "stateMutability": "nonpayable",
      "type": "function"
    },
    {
      "inputs": [],
      "name": "name",
      "outputs": [
        {
          "internalType": "string",
          "name": "",
          "type": "string"
        }
      ],
      "stateMutability": "view",
      "type": "function"
    },
    {
      "inputs": [],
      "name": "owner",
      "outputs": [
        {
          "internalType": "address",
          "name": "",
          "type": "address"
        }
      ],
      "stateMutability": "view",
      "type": "function"
    },
    {
      "inputs": [
        {
          "internalType": "address",
          "name": "minter",
          "type": "address"
        }
      ],
      "name": "removeMinter",
      "outputs": [
        {
          "internalType": "bool",
          "name": "",
          "type": "bool"
        }
      ],
      "stateMutability": "nonpayable",
      "type": "function"
    },
    {
      "inputs": [],
      "name": "renounceOwnership",
      "outputs": [],
      "stateMutability": "nonpayable",
      "type": "function"
    },
    {
      "inputs": [],
      "name": "symbol",
      "outputs": [
        {
          "internalType": "string",
          "name": "",
          "type": "string"
        }
      ],
      "stateMutability": "view",
      "type": "function"
    },
    {
      "inputs": [],
      "name": "totalSupply",
      "outputs": [
        {
          "internalType": "uint256",
          "name": "",
          "type": "uint256"
        }
      ],
      "stateMutability": "view",
      "type": "function"
    },
    {
      "inputs": [
        {
          "internalType": "address",
          "name": "to",
          "type": "address"
        },
        {
          "internalType": "uint256",
          "name": "value",
          "type": "uint256"
        }
      ],
      "name": "transfer",
      "outputs": [
        {
          "internalType": "bool",
          "name": "",
          "type": "bool"
        }
      ],
      "stateMutability": "nonpayable",
      "type": "function"
    },
    {
      "inputs": [
        {
          "internalType": "address",
          "name": "from",
          "type": "address"
        },
        {
          "internalType": "address",
          "name": "to",
          "type": "address"
        },
        {
          "internalType": "uint256",
          "name": "value",
          "type": "uint256"
        }
      ],
      "name": "transferFrom",
      "outputs": [
        {
          "internalType": "bool",
          "name": "",
          "type": "bool"
        }
      ],
      "stateMutability": "nonpayable",
      "type": "function"
    },
    {
      "inputs": [
        {
          "internalType": "address",
          "name": "newOwner",
          "type": "address"
        }
      ],
      "name": "transferOwnership",
      "outputs": [],
      "stateMutability": "nonpayable",
      "type": "function"
    },
    {
      "inputs": [
        {
          "internalType": "address",
          "name": "_account",
          "type": "address"
        }
      ],
      "name": "unBlacklist",
      "outputs": [],
      "stateMutability": "nonpayable",
      "type": "function"
    }
  ],
  "bytecode": "0x60806040523480156200001157600080fd5b506040516200327038038062003270833981810160405281019062000037919062000428565b6040518060400160405280601581526020017f43656e7472616c697a6564537461626c65636f696e00000000000000000000008152506040518060400160405280600381526020017f43534300000000000000000000000000000000000000000000000000000000008152508160039080519060200190620000bb92919062000361565b508060049080519060200190620000d492919062000361565b505050620000f7620000eb6200011060201b60201c565b6200011860201b60201c565b620001093382620001de60201b60201c565b5062000625565b600033905090565b6000600560009054906101000a900473ffffffffffffffffffffffffffffffffffffffff16905081600560006101000a81548173ffffffffffffffffffffffffffffffffffffffff021916908373ffffffffffffffffffffffffffffffffffffffff1602179055508173ffffffffffffffffffffffffffffffffffffffff168173ffffffffffffffffffffffffffffffffffffffff167f8be0079c531659141344cd1fd0a4f28419497f9722a3daafe3b4186f6b6457e060405160405180910390a35050565b600073ffffffffffffffffffffffffffffffffffffffff168273ffffffffffffffffffffffffffffffffffffffff16141562000251576040517f08c379a0000000000000000000000000000000000000000000000000000000008152600401620002489062000492565b60405180910390fd5b62000265600083836200035760201b60201c565b8060026000828254620002799190620004e2565b92505081905550806000808473ffffffffffffffffffffffffffffffffffffffff1673ffffffffffffffffffffffffffffffffffffffff1681526020019081526020016000206000828254620002d09190620004e2565b925050819055508173ffffffffffffffffffffffffffffffffffffffff16600073ffffffffffffffffffffffffffffffffffffffff167fddf252ad1be2c89b69c2b068fc378daa952ba7f163c4a11628f55a4df523b3ef83604051620003379190620004b4565b60405180910390a362000353600083836200035c60201b60201c565b5050565b505050565b505050565b8280546200036f9062000549565b90600052602060002090601f016020900481019282620003935760008555620003df565b82601f10620003ae57805160ff1916838001178555620003df565b82800160010185558215620003df579182015b82811115620003de578251825591602001919060010190620003c1565b5b509050620003ee9190620003f2565b5090565b5b808211156200040d576000816000905550600101620003f3565b5090565b60008151905062000422816200060b565b92915050565b600060208284031215620004415762000440620005dd565b5b6000620004518482850162000411565b91505092915050565b600062000469601f83620004d1565b91506200047682620005e2565b602082019050919050565b6200048c816200053f565b82525050565b60006020820190508181036000830152620004ad816200045a565b9050919050565b6000602082019050620004cb600083018462000481565b92915050565b600082825260208201905092915050565b6000620004ef826200053f565b9150620004fc836200053f565b9250827fffffffffffffffffffffffffffffffffffffffffffffffffffffffffffffffff038211156200053457620005336200057f565b5b828201905092915050565b6000819050919050565b600060028204905060018216806200056257607f821691505b60208210811415620005795762000578620005ae565b5b50919050565b7f4e487b7100000000000000000000000000000000000000000000000000000000600052601160045260246000fd5b7f4e487b7100000000000000000000000000000000000000000000000000000000600052602260045260246000fd5b600080fd5b7f45524332303a206d696e7420746f20746865207a65726f206164647265737300600082015250565b62000616816200053f565b81146200062257600080fd5b50565b612c3b80620006356000396000f3fe608060405234801561001057600080fd5b50600436106101425760003560e01c806370a08231116100b8578063a457c2d71161007c578063a457c2d71461038b578063a9059cbb146103bb578063dd62ed3e146103eb578063f2fde38b1461041b578063f9f92be414610437578063fe575a871461045357610142565b806370a08231146102f9578063715018a61461032957806379cc6790146103335780638da5cb5b1461034f57806395d89b411461036d57610142565b80633092afd51161010a5780633092afd5146101ff578063313ce5671461022f578063395093511461024d57806340c10f191461027d57806342966c68146102ad5780634e44d956146102c957610142565b806306fdde0314610147578063095ea7b31461016557806318160ddd146101955780631a895266146101b357806323b872dd146101cf575b600080fd5b61014f610483565b60405161015c91906124e9565b60405180910390f35b61017f600480360381019061017a919061222d565b610515565b60405161018c91906124ce565b60405180910390f35b61019d610638565b6040516101aa919061268b565b60405180910390f35b6101cd60048036038101906101c8919061216d565b610642565b005b6101e960048036038101906101e491906121da565b61075c565b6040516101f691906124ce565b60405180910390f35b6102196004803603810190610214919061216d565b610907565b60405161022691906124ce565b60405180910390f35b610237610a6e565b60405161024491906126a6565b60405180910390f35b6102676004803603810190610262919061222d565b610a77565b60405161027491906124ce565b60405180910390f35b6102976004803603810190610292919061222d565b610b21565b6040516102a491906124ce565b60405180910390f35b6102c760048036038101906102c2919061226d565b610e35565b005b6102e360048036038101906102de919061222d565b610fcd565b6040516102f091906124ce565b60405180910390f35b610313600480360381019061030e919061216d565b61113f565b604051610320919061268b565b60405180910390f35b610331611187565b005b61034d6004803603810190610348919061222d565b61120f565b005b61035761122f565b60405161036491906124b3565b60405180910390f35b610375611259565b60405161038291906124e9565b60405180910390f35b6103a560048036038101906103a0919061222d565b6112eb565b6040516103b291906124ce565b60405180910390f35b6103d560048036038101906103d0919061222d565b6113d5565b6040516103e291906124ce565b60405180910390f35b6104056004803603810190610400919061219a565b6114f8565b604051610412919061268b565b60405180910390f35b6104356004803603810190610430919061216d565b61157f565b005b610451600480360381019061044c919061216d565b611677565b005b61046d6004803603810190610468919061216d565b611791565b60405161047a91906124ce565b60405180910390f35b606060038054610492906127ef565b80601f01602080910402602001604051908101604052809291908181526020018280546104be906127ef565b801561050b5780601f106104e05761010080835404028352916020019161050b565b820191906000526020600020905b8154815290600101906020018083116104ee57829003601f168201915b5050505050905090565b600033600660008273ffffffffffffffffffffffffffffffffffffffff1673ffffffffffffffffffffffffffffffffffffffff16815260200190815260200160002060009054906101000a900460ff161561059c576040517ff382f24d00000000000000000000000000000000000000000000000000000000815260040160405180910390fd5b83600660008273ffffffffffffffffffffffffffffffffffffffff1673ffffffffffffffffffffffffffffffffffffffff16815260200190815260200160002060009054906101000a900460ff1615610621576040517ff382f24d00000000000000000000000000000000000000000000000000000000815260040160405180910390fd5b61062b85856117e7565b5060019250505092915050565b6000600254905090565b61064a61180a565b73ffffffffffffffffffffffffffffffffffffffff1661066861122f565b73ffffffffffffffffffffffffffffffffffffffff16146106be576040517f08c379a00000000000000000000000000000000000000000000000000000000081526004016106b5906125cb565b60405180910390fd5b6000600660008373ffffffffffffffffffffffffffffffffffffffff1673ffffffffffffffffffffffffffffffffffffffff16815260200190815260200160002060006101000a81548160ff0219169083151502179055508073ffffffffffffffffffffffffffffffffffffffff167f117e3210bb9aa7d9baff172026820255c6f6c30ba8999d1c2fd88e2848137c4e60405160405180910390a250565b600033600660008273ffffffffffffffffffffffffffffffffffffffff1673ffffffffffffffffffffffffffffffffffffffff16815260200190815260200160002060009054906101000a900460ff16156107e3576040517ff382f24d00000000000000000000000000000000000000000000000000000000815260040160405180910390fd5b84600660008273ffffffffffffffffffffffffffffffffffffffff1673ffffffffffffffffffffffffffffffffffffffff16815260200190815260200160002060009054906101000a900460ff1615610868576040517ff382f24d00000000000000000000000000000000000000000000000000000000815260040160405180910390fd5b84600660008273ffffffffffffffffffffffffffffffffffffffff1673ffffffffffffffffffffffffffffffffffffffff16815260200190815260200160002060009054906101000a900460ff16156108ed576040517ff382f24d00000000000000000000000000000000000000000000000000000000815260040160405180910390fd5b6108f8878787611812565b50600193505050509392505050565b600061091161180a565b73ffffffffffffffffffffffffffffffffffffffff1661092f61122f565b73ffffffffffffffffffffffffffffffffffffffff1614610985576040517f08c379a000000000000000000000000000000000000000000000000000000000815260040161097c906125cb565b60405180910390fd5b6000600760008473ffffffffffffffffffffffffffffffffffffffff1673ffffffffffffffffffffffffffffffffffffffff16815260200190815260200160002060006101000a81548160ff0219169083151502179055506000600860008473ffffffffffffffffffffffffffffffffffffffff1673ffffffffffffffffffffffffffffffffffffffff168152602001908152602001600020819055508173ffffffffffffffffffffffffffffffffffffffff167fe94479a9f7e1952cc78f2d6baab678adc1b772d936c6583def489e524cb6669260405160405180910390a260019050919050565b60006012905090565b600080610a8261180a565b9050610b16818585600160008673ffffffffffffffffffffffffffffffffffffffff1673ffffffffffffffffffffffffffffffffffffffff16815260200190815260200160002060008973ffffffffffffffffffffffffffffffffffffffff1673ffffffffffffffffffffffffffffffffffffffff16815260200190815260200160002054610b1191906126dd565b611841565b600191505092915050565b6000600760003373ffffffffffffffffffffffffffffffffffffffff1673ffffffffffffffffffffffffffffffffffffffff16815260200190815260200160002060009054906101000a900460ff16610ba6576040517f9c20460500000000000000000000000000000000000000000000000000000000815260040160405180910390fd5b33600660008273ffffffffffffffffffffffffffffffffffffffff1673ffffffffffffffffffffffffffffffffffffffff16815260200190815260200160002060009054906101000a900460ff1615610c2b576040517ff382f24d00000000000000000000000000000000000000000000000000000000815260040160405180910390fd5b83600660008273ffffffffffffffffffffffffffffffffffffffff1673ffffffffffffffffffffffffffffffffffffffff16815260200190815260200160002060009054906101000a900460ff1615610cb0576040517ff382f24d00000000000000000000000000000000000000000000000000000000815260040160405180910390fd5b600073ffffffffffffffffffffffffffffffffffffffff168573ffffffffffffffffffffffffffffffffffffffff161415610d17576040517f54a4fada00000000000000000000000000000000000000000000000000000000815260040160405180910390fd5b60008411610d51576040517fbe525e8d00000000000000000000000000000000000000000000000000000000815260040160405180910390fd5b6000600860003373ffffffffffffffffffffffffffffffffffffffff1673ffffffffffffffffffffffffffffffffffffffff16815260200190815260200160002054905080851115610dcf576040517fd08ae24d00000000000000000000000000000000000000000000000000000000815260040160405180910390fd5b8481610ddb9190612733565b600860003373ffffffffffffffffffffffffffffffffffffffff1673ffffffffffffffffffffffffffffffffffffffff16815260200190815260200160002081905550610e283382611a0c565b6001935050505092915050565b600760003373ffffffffffffffffffffffffffffffffffffffff1673ffffffffffffffffffffffffffffffffffffffff16815260200190815260200160002060009054906101000a900460ff16610eb8576040517f9c20460500000000000000000000000000000000000000000000000000000000815260040160405180910390fd5b33600660008273ffffffffffffffffffffffffffffffffffffffff1673ffffffffffffffffffffffffffffffffffffffff16815260200190815260200160002060009054906101000a900460ff1615610f3d576040517ff382f24d00000000000000000000000000000000000000000000000000000000815260040160405180910390fd5b6000610f483361113f565b905060008311610f84576040517fbe525e8d00000000000000000000000000000000000000000000000000000000815260040160405180910390fd5b82811015610fbe576040517f27120dad00000000000000000000000000000000000000000000000000000000815260040160405180910390fd5b610fc83384611b6c565b505050565b6000610fd761180a565b73ffffffffffffffffffffffffffffffffffffffff16610ff561122f565b73ffffffffffffffffffffffffffffffffffffffff161461104b576040517f08c379a0000000000000000000000000000000000000000000000000000000008152600401611042906125cb565b60405180910390fd5b6001600760008573ffffffffffffffffffffffffffffffffffffffff1673ffffffffffffffffffffffffffffffffffffffff16815260200190815260200160002060006101000a81548160ff02191690831515021790555081600860008573ffffffffffffffffffffffffffffffffffffffff1673ffffffffffffffffffffffffffffffffffffffff168152602001908152602001600020819055508273ffffffffffffffffffffffffffffffffffffffff167f46980fca912ef9bcdbd36877427b6b90e860769f604e89c0e67720cece530d208360405161112d919061268b565b60405180910390a26001905092915050565b60008060008373ffffffffffffffffffffffffffffffffffffffff1673ffffffffffffffffffffffffffffffffffffffff168152602001908152602001600020549050919050565b61118f61180a565b73ffffffffffffffffffffffffffffffffffffffff166111ad61122f565b73ffffffffffffffffffffffffffffffffffffffff1614611203576040517f08c379a00000000000000000000000000000000000000000000000000000000081526004016111fa906125cb565b60405180910390fd5b61120d6000611d43565b565b6112218261121b61180a565b83611e09565b61122b8282611b6c565b5050565b6000600560009054906101000a900473ffffffffffffffffffffffffffffffffffffffff16905090565b606060048054611268906127ef565b80601f0160208091040260200160405190810160405280929190818152602001828054611294906127ef565b80156112e15780601f106112b6576101008083540402835291602001916112e1565b820191906000526020600020905b8154815290600101906020018083116112c457829003601f168201915b5050505050905090565b6000806112f661180a565b90506000600160008373ffffffffffffffffffffffffffffffffffffffff1673ffffffffffffffffffffffffffffffffffffffff16815260200190815260200160002060008673ffffffffffffffffffffffffffffffffffffffff1673ffffffffffffffffffffffffffffffffffffffff168152602001908152602001600020549050838110156113bc576040517f08c379a00000000000000000000000000000000000000000000000000000000081526004016113b39061264b565b60405180910390fd5b6113c98286868403611841565b60019250505092915050565b600033600660008273ffffffffffffffffffffffffffffffffffffffff1673ffffffffffffffffffffffffffffffffffffffff16815260200190815260200160002060009054906101000a900460ff161561145c576040517ff382f24d00000000000000000000000000000000000000000000000000000000815260040160405180910390fd5b83600660008273ffffffffffffffffffffffffffffffffffffffff1673ffffffffffffffffffffffffffffffffffffffff16815260200190815260200160002060009054906101000a900460ff16156114e1576040517ff382f24d00000000000000000000000000000000000000000000000000000000815260040160405180910390fd5b6114eb3385611e95565b5060019250505092915050565b6000600160008473ffffffffffffffffffffffffffffffffffffffff1673ffffffffffffffffffffffffffffffffffffffff16815260200190815260200160002060008373ffffffffffffffffffffffffffffffffffffffff1673ffffffffffffffffffffffffffffffffffffffff16815260200190815260200160002054905092915050565b61158761180a565b73ffffffffffffffffffffffffffffffffffffffff166115a561122f565b73ffffffffffffffffffffffffffffffffffffffff16146115fb576040517f08c379a00000000000000000000000000000000000000000000000000000000081526004016115f2906125cb565b60405180910390fd5b600073ffffffffffffffffffffffffffffffffffffffff168173ffffffffffffffffffffffffffffffffffffffff16141561166b576040517f08c379a00000000000000000000000000000000000000000000000000000000081526004016116629061254b565b60405180910390fd5b61167481611d43565b50565b61167f61180a565b73ffffffffffffffffffffffffffffffffffffffff1661169d61122f565b73ffffffffffffffffffffffffffffffffffffffff16146116f3576040517f08c379a00000000000000000000000000000000000000000000000000000000081526004016116ea906125cb565b60405180910390fd5b6001600660008373ffffffffffffffffffffffffffffffffffffffff1673ffffffffffffffffffffffffffffffffffffffff16815260200190815260200160002060006101000a81548160ff0219169083151502179055508073ffffffffffffffffffffffffffffffffffffffff167fffa4e6181777692565cf28528fc88fd1516ea86b56da075235fa575af6a4b85560405160405180910390a250565b6000600660008373ffffffffffffffffffffffffffffffffffffffff1673ffffffffffffffffffffffffffffffffffffffff16815260200190815260200160002060009054906101000a900460ff169050919050565b6000806117f261180a565b90506117ff818585611841565b600191505092915050565b600033905090565b60008061181d61180a565b905061182a858285611e09565b611835858585611eb8565b60019150509392505050565b600073ffffffffffffffffffffffffffffffffffffffff168373ffffffffffffffffffffffffffffffffffffffff1614156118b1576040517f08c379a00000000000000000000000000000000000000000000000000000000081526004016118a89061262b565b60405180910390fd5b600073ffffffffffffffffffffffffffffffffffffffff168273ffffffffffffffffffffffffffffffffffffffff161415611921576040517f08c379a00000000000000000000000000000000000000000000000000000000081526004016119189061256b565b60405180910390fd5b80600160008573ffffffffffffffffffffffffffffffffffffffff1673ffffffffffffffffffffffffffffffffffffffff16815260200190815260200160002060008473ffffffffffffffffffffffffffffffffffffffff1673ffffffffffffffffffffffffffffffffffffffff168152602001908152602001600020819055508173ffffffffffffffffffffffffffffffffffffffff168373ffffffffffffffffffffffffffffffffffffffff167f8c5be1e5ebec7d5bd14f71427d1e84f3dd0314c0f7b2291e5b200ac8c7c3b925836040516119ff919061268b565b60405180910390a3505050565b600073ffffffffffffffffffffffffffffffffffffffff168273ffffffffffffffffffffffffffffffffffffffff161415611a7c576040517f08c379a0000000000000000000000000000000000000000000000000000000008152600401611a739061266b565b60405180910390fd5b611a8860008383612139565b8060026000828254611a9a91906126dd565b92505081905550806000808473ffffffffffffffffffffffffffffffffffffffff1673ffffffffffffffffffffffffffffffffffffffff1681526020019081526020016000206000828254611aef91906126dd565b925050819055508173ffffffffffffffffffffffffffffffffffffffff16600073ffffffffffffffffffffffffffffffffffffffff167fddf252ad1be2c89b69c2b068fc378daa952ba7f163c4a11628f55a4df523b3ef83604051611b54919061268b565b60405180910390a3611b686000838361213e565b5050565b600073ffffffffffffffffffffffffffffffffffffffff168273ffffffffffffffffffffffffffffffffffffffff161415611bdc576040517f08c379a0000000000000000000000000000000000000000000000000000000008152600401611bd3906125eb565b60405180910390fd5b611be882600083612139565b60008060008473ffffffffffffffffffffffffffffffffffffffff1673ffffffffffffffffffffffffffffffffffffffff16815260200190815260200160002054905081811015611c6e576040517f08c379a0000000000000000000000000000000000000000000000000000000008152600401611c659061252b565b60405180910390fd5b8181036000808573ffffffffffffffffffffffffffffffffffffffff1673ffffffffffffffffffffffffffffffffffffffff168152602001908152602001600020819055508160026000828254611cc59190612733565b92505081905550600073ffffffffffffffffffffffffffffffffffffffff168373ffffffffffffffffffffffffffffffffffffffff167fddf252ad1be2c89b69c2b068fc378daa952ba7f163c4a11628f55a4df523b3ef84604051611d2a919061268b565b60405180910390a3611d3e8360008461213e565b505050565b6000600560009054906101000a900473ffffffffffffffffffffffffffffffffffffffff16905081600560006101000a81548173ffffffffffffffffffffffffffffffffffffffff021916908373ffffffffffffffffffffffffffffffffffffffff1602179055508173ffffffffffffffffffffffffffffffffffffffff168173ffffffffffffffffffffffffffffffffffffffff167f8be0079c531659141344cd1fd0a4f28419497f9722a3daafe3b4186f6b6457e060405160405180910390a35050565b6000611e1584846114f8565b90507fffffffffffffffffffffffffffffffffffffffffffffffffffffffffffffffff8114611e8f5781811015611e81576040517f08c379a0000000000000000000000000000000000000000000000000000000008152600401611e789061258b565b60405180910390fd5b611e8e8484848403611841565b5b50505050565b600080611ea061180a565b9050611ead818585611eb8565b600191505092915050565b600073ffffffffffffffffffffffffffffffffffffffff168373ffffffffffffffffffffffffffffffffffffffff161415611f28576040517f08c379a0000000000000000000000000000000000000000000000000000000008152600401611f1f9061260b565b60405180910390fd5b600073ffffffffffffffffffffffffffffffffffffffff168273ffffffffffffffffffffffffffffffffffffffff161415611f98576040517f08c379a0000000000000000000000000000000000000000000000000000000008152600401611f8f9061250b565b60405180910390fd5b611fa3838383612139565b60008060008573ffffffffffffffffffffffffffffffffffffffff1673ffffffffffffffffffffffffffffffffffffffff16815260200190815260200160002054905081811015612029576040517f08c379a0000000000000000000000000000000000000000000000000000000008152600401612020906125ab565b60405180910390fd5b8181036000808673ffffffffffffffffffffffffffffffffffffffff1673ffffffffffffffffffffffffffffffffffffffff16815260200190815260200160002081905550816000808573ffffffffffffffffffffffffffffffffffffffff1673ffffffffffffffffffffffffffffffffffffffff16815260200190815260200160002060008282546120bc91906126dd565b925050819055508273ffffffffffffffffffffffffffffffffffffffff168473ffffffffffffffffffffffffffffffffffffffff167fddf252ad1be2c89b69c2b068fc378daa952ba7f163c4a11628f55a4df523b3ef84604051612120919061268b565b60405180910390a361213384848461213e565b50505050565b505050565b505050565b60008135905061215281612bd7565b92915050565b60008135905061216781612bee565b92915050565b6000602082840312156121835761218261287f565b5b600061219184828501612143565b91505092915050565b600080604083850312156121b1576121b061287f565b5b60006121bf85828601612143565b92505060206121d085828601612143565b9150509250929050565b6000806000606084860312156121f3576121f261287f565b5b600061220186828701612143565b935050602061221286828701612143565b925050604061222386828701612158565b9150509250925092565b600080604083850312156122445761224361287f565b5b600061225285828601612143565b925050602061226385828601612158565b9150509250929050565b6000602082840312156122835761228261287f565b5b600061229184828501612158565b91505092915050565b6122a381612767565b82525050565b6122b281612779565b82525050565b60006122c3826126c1565b6122cd81856126cc565b93506122dd8185602086016127bc565b6122e681612884565b840191505092915050565b60006122fe6023836126cc565b915061230982612895565b604082019050919050565b60006123216022836126cc565b915061232c826128e4565b604082019050919050565b60006123446026836126cc565b915061234f82612933565b604082019050919050565b60006123676022836126cc565b915061237282612982565b604082019050919050565b600061238a601d836126cc565b9150612395826129d1565b602082019050919050565b60006123ad6026836126cc565b91506123b8826129fa565b604082019050919050565b60006123d06020836126cc565b91506123db82612a49565b602082019050919050565b60006123f36021836126cc565b91506123fe82612a72565b604082019050919050565b60006124166025836126cc565b915061242182612ac1565b604082019050919050565b60006124396024836126cc565b915061244482612b10565b604082019050919050565b600061245c6025836126cc565b915061246782612b5f565b604082019050919050565b600061247f601f836126cc565b915061248a82612bae565b602082019050919050565b61249e816127a5565b82525050565b6124ad816127af565b82525050565b60006020820190506124c8600083018461229a565b92915050565b60006020820190506124e360008301846122a9565b92915050565b6000602082019050818103600083015261250381846122b8565b905092915050565b60006020820190508181036000830152612524816122f1565b9050919050565b6000602082019050818103600083015261254481612314565b9050919050565b6000602082019050818103600083015261256481612337565b9050919050565b600060208201905081810360008301526125848161235a565b9050919050565b600060208201905081810360008301526125a48161237d565b9050919050565b600060208201905081810360008301526125c4816123a0565b9050919050565b600060208201905081810360008301526125e4816123c3565b9050919050565b60006020820190508181036000830152612604816123e6565b9050919050565b6000602082019050818103600083015261262481612409565b9050919050565b600060208201905081810360008301526126448161242c565b9050919050565b600060208201905081810360008301526126648161244f565b9050919050565b6000602082019050818103600083015261268481612472565b9050919050565b60006020820190506126a06000830184612495565b92915050565b60006020820190506126bb60008301846124a4565b92915050565b600081519050919050565b600082825260208201905092915050565b60006126e8826127a5565b91506126f3836127a5565b9250827fffffffffffffffffffffffffffffffffffffffffffffffffffffffffffffffff0382111561272857612727612821565b5b828201905092915050565b600061273e826127a5565b9150612749836127a5565b92508282101561275c5761275b612821565b5b828203905092915050565b600061277282612785565b9050919050565b60008115159050919050565b600073ffffffffffffffffffffffffffffffffffffffff82169050919050565b6000819050919050565b600060ff82169050919050565b60005b838110156127da5780820151818401526020810190506127bf565b838111156127e9576000848401525b50505050565b6000600282049050600182168061280757607f821691505b6020821081141561281b5761281a612850565b5b50919050565b7f4e487b7100000000000000000000000000000000000000000000000000000000600052601160045260246000fd5b7f4e487b7100000000000000000000000000000000000000000000000000000000600052602260045260246000fd5b600080fd5b6000601f19601f8301169050919050565b7f45524332303a207472616e7366657220746f20746865207a65726f206164647260008201527f6573730000000000000000000000000000000000000000000000000000000000602082015250565b7f45524332303a206275726e20616d6f756e7420657863656564732062616c616e60008201527f6365000000000000000000000000000000000000000000000000000000000000602082015250565b7f4f776e61626c653a206e6577206f776e657220697320746865207a65726f206160008201527f6464726573730000000000000000000000000000000000000000000000000000602082015250565b7f45524332303a20617070726f766520746f20746865207a65726f20616464726560008201527f7373000000000000000000000000000000000000000000000000000000000000602082015250565b7f45524332303a20696e73756666696369656e7420616c6c6f77616e6365000000600082015250565b7f45524332303a207472616e7366657220616d6f756e742065786365656473206260008201527f616c616e63650000000000000000000000000000000000000000000000000000602082015250565b7f4f776e61626c653a2063616c6c6572206973206e6f7420746865206f776e6572600082015250565b7f45524332303a206275726e2066726f6d20746865207a65726f2061646472657360008201527f7300000000000000000000000000000000000000000000000000000000000000602082015250565b7f45524332303a207472616e736665722066726f6d20746865207a65726f20616460008201527f6472657373000000000000000000000000000000000000000000000000000000602082015250565b7f45524332303a20617070726f76652066726f6d20746865207a65726f2061646460008201527f7265737300000000000000000000000000000000000000000000000000000000602082015250565b7f45524332303a2064656372656173656420616c6c6f77616e63652062656c6f7760008201527f207a65726f000000000000000000000000000000000000000000000000000000602082015250565b7f45524332303a206d696e7420746f20746865207a65726f206164647265737300600082015250565b612be081612767565b8114612beb57600080fd5b50565b612bf7816127a5565b8114612c0257600080fd5b5056fea26469706673582212207943c0c816915cb124cf0138a72c8d6235e143dc434be612af0b0845e17b935b64736f6c63430008070033",
  "linkReferences": {},
  "deployedLinkReferences": {}
}