{
  "_format": "hh-sol-artifact-1",
  "contractName": "DSCEngine",
  "sourceName": "contracts/stablecoins/exogenousAnchoredCoin/DSCEngine.sol",
  "abi": [
    {
      "inputs": [
        {
          "internalType": "address[]",
          "name": "tokenAddresses",
          "type": "address[]"
        },
        {
          "internalType": "address[]",
          "name": "priceFeedAddresses",
          "type": "address[]"
        },
        {
          "internalType": "address",
          "name": "dscAddress",
          "type": "address"
        }
      ],
      "stateMutability": "nonpayable",
      "type": "constructor"
    },
    {
      "inputs": [],
      "name": "DSCEngine__BreaksHealthFactor",
      "type": "error"
    },
    {
      "inputs": [],
      "name": "DSCEngine__HealthFactorOk",
      "type": "error"
    },
    {
      "inputs": [],
      "name": "DSCEngine__MintFailed",
      "type": "error"
    },
    {
      "inputs": [],
      "name": "DSCEngine__NeedsMoreThanZero",
      "type": "error"
    },
    {
      "inputs": [],
      "name": "DSCEngine__TokenAddressesAndPriceFeedAddressesAmountsDontMatch",
      "type": "error"
    },
    {
      "inputs": [
        {
          "internalType": "address",
          "name": "token",
          "type": "address"
        }
      ],
      "name": "DSCEngine__TokenNotAllowed",
      "type": "error"
    },
    {
      "inputs": [],
      "name": "DSCEngine__TransferFailed",
      "type": "error"
    },
    {
      "anonymous": false,
      "inputs": [
        {
          "indexed": true,
          "internalType": "address",
          "name": "user",
          "type": "address"
        },
        {
          "indexed": true,
          "internalType": "uint256",
          "name": "amount",
          "type": "uint256"
        }
      ],
      "name": "CollateralDeposited",
      "type": "event"
    },
    {
      "inputs": [],
      "name": "LIQUIDATION_BONUS",
      "outputs": [
        {
          "internalType": "uint256",
          "name": "",
          "type": "uint256"
        }
      ],
      "stateMutability": "view",
      "type": "function"
    },
    {
      "inputs": [],
      "name": "LIQUIDATION_THRESHOLD",
      "outputs": [
        {
          "internalType": "uint256",
          "name": "",
          "type": "uint256"
        }
      ],
      "stateMutability": "view",
      "type": "function"
    },
    {
      "inputs": [],
      "name": "MIN_HEALTH_FACTOR",
      "outputs": [
        {
          "internalType": "uint256",
          "name": "",
          "type": "uint256"
        }
      ],
      "stateMutability": "view",
      "type": "function"
    },
    {
      "inputs": [
        {
          "internalType": "uint256",
          "name": "amountDscToBurn",
          "type": "uint256"
        }
      ],
      "name": "burnDsc",
      "outputs": [],
      "stateMutability": "nonpayable",
      "type": "function"
    },
    {
      "inputs": [
        {
          "internalType": "address",
          "name": "tokenCollateralAddress",
          "type": "address"
        },
        {
          "internalType": "uint256",
          "name": "amountCollateral",
          "type": "uint256"
        },
        {
          "internalType": "uint256",
          "name": "amountDscToMint",
          "type": "uint256"
        }
      ],
      "name": "depositCollateralAndMintDsc",
      "outputs": [],
      "stateMutability": "nonpayable",
      "type": "function"
    },
    {
      "inputs": [
        {
          "internalType": "address",
          "name": "tokenCollateralAddress",
          "type": "address"
        },
        {
          "internalType": "uint256",
          "name": "amountCollateral",
          "type": "uint256"
        }
      ],
      "name": "despositCollateral",
      "outputs": [],
      "stateMutability": "nonpayable",
      "type": "function"
    },
    {
      "inputs": [
        {
          "internalType": "address",
          "name": "user",
          "type": "address"
        }
      ],
      "name": "getAccountCollateralValue",
      "outputs": [
        {
          "internalType": "uint256",
          "name": "totalCollateralValueInUsd",
          "type": "uint256"
        }
      ],
      "stateMutability": "view",
      "type": "function"
    },
    {
      "inputs": [
        {
          "internalType": "address",
          "name": "user",
          "type": "address"
        }
      ],
      "name": "getAccountInformation",
      "outputs": [
        {
          "internalType": "uint256",
          "name": "totalDscMinted",
          "type": "uint256"
        },
        {
          "internalType": "uint256",
          "name": "collateralValueInUsd",
          "type": "uint256"
        }
      ],
      "stateMutability": "view",
      "type": "function"
    },
    {
      "inputs": [
        {
          "internalType": "address",
          "name": "token",
          "type": "address"
        },
        {
          "internalType": "uint256",
          "name": "usdAmountInWei",
          "type": "uint256"
        }
      ],
      "name": "getTokenAmountFromUsd",
      "outputs": [
        {
          "internalType": "uint256",
          "name": "",
          "type": "uint256"
        }
      ],
      "stateMutability": "view",
      "type": "function"
    },
    {
      "inputs": [
        {
          "internalType": "address",
          "name": "token",
          "type": "address"
        },
        {
          "internalType": "uint256",
          "name": "amount",
          "type": "uint256"
        }
      ],
      "name": "getUsdValue",
      "outputs": [
        {
          "internalType": "uint256",
          "name": "",
          "type": "uint256"
        }
      ],
      "stateMutability": "view",
      "type": "function"
    },
    {
      "inputs": [
        {
          "internalType": "address",
          "name": "user",
          "type": "address"
        }
      ],
      "name": "healthFactor",
      "outputs": [
        {
          "internalType": "uint256",
          "name": "",
          "type": "uint256"
        }
      ],
      "stateMutability": "view",
      "type": "function"
    },
    {
      "inputs": [],
      "name": "i_dsc",
      "outputs": [
        {
          "internalType": "contract DecentralizedStableCoin",
          "name": "",
          "type": "address"
        }
      ],
      "stateMutability": "view",
      "type": "function"
    },
    {
      "inputs": [
        {
          "internalType": "address",
          "name": "collateral",
          "type": "address"
        },
        {
          "internalType": "address",
          "name": "user",
          "type": "address"
        },
        {
          "internalType": "uint256",
          "name": "debtToCover",
          "type": "uint256"
        }
      ],
      "name": "liquidate",
      "outputs": [],
      "stateMutability": "nonpayable",
      "type": "function"
    },
    {
      "inputs": [
        {
          "internalType": "uint256",
          "name": "amountDscToMint",
          "type": "uint256"
        }
      ],
      "name": "mintDsc",
      "outputs": [],
      "stateMutability": "nonpayable",
      "type": "function"
    },
    {
      "inputs": [
        {
          "internalType": "address",
          "name": "tokenCollateralAddress",
          "type": "address"
        },
        {
          "internalType": "uint256",
          "name": "amountCollateral",
          "type": "uint256"
        }
      ],
      "name": "redeemCollateral",
      "outputs": [],
      "stateMutability": "nonpayable",
      "type": "function"
    },
    {
      "inputs": [
        {
          "internalType": "address",
          "name": "tokenCollateralAddress",
          "type": "address"
        },
        {
          "internalType": "uint256",
          "name": "amountCollateral",
          "type": "uint256"
        },
        {
          "internalType": "uint256",
          "name": "amountDscToBurn",
          "type": "uint256"
        }
      ],
      "name": "redeemCollateralForDsc",
      "outputs": [],
      "stateMutability": "nonpayable",
      "type": "function"
    },
    {
      "inputs": [
        {
          "internalType": "uint256",
          "name": "",
          "type": "uint256"
        }
      ],
      "name": "s_collateralTokens",
      "outputs": [
        {
          "internalType": "address",
          "name": "",
          "type": "address"
        }
      ],
      "stateMutability": "view",
      "type": "function"
    },
    {
      "inputs": [
        {
          "internalType": "address",
          "name": "",
          "type": "address"
        }
      ],
      "name": "s_tokenAddressToPriceFeed",
      "outputs": [
        {
          "internalType": "address",
          "name": "",
          "type": "address"
        }
      ],
      "stateMutability": "view",
      "type": "function"
    },
    {
      "inputs": [
        {
          "internalType": "address",
          "name": "",
          "type": "address"
        }
      ],
      "name": "s_userToDscMinted",
      "outputs": [
        {
          "internalType": "uint256",
          "name": "",
          "type": "uint256"
        }
      ],
      "stateMutability": "view",
      "type": "function"
    },
    {
      "inputs": [
        {
          "internalType": "address",
          "name": "",
          "type": "address"
        },
        {
          "internalType": "address",
          "name": "",
          "type": "address"
        }
      ],
      "name": "s_userToTokenAddressToAmountDeposited",
      "outputs": [
        {
          "internalType": "uint256",
          "name": "",
          "type": "uint256"
        }
      ],
      "stateMutability": "view",
      "type": "function"
    }
  ],
  "bytecode": "0x60a06040523480156200001157600080fd5b50604051620020cf380380620020cf8339818101604052810190620000379190620002dc565b600160008190555081518351146200007b576040517f3b1767ce00000000000000000000000000000000000000000000000000000000815260040160405180910390fd5b60005b8351811015620001d6578281815181106200009e576200009d620004bf565b5b602002602001015160016000868481518110620000c057620000bf620004bf565b5b602002602001015173ffffffffffffffffffffffffffffffffffffffff1673ffffffffffffffffffffffffffffffffffffffff16815260200190815260200160002060006101000a81548173ffffffffffffffffffffffffffffffffffffffff021916908373ffffffffffffffffffffffffffffffffffffffff1602179055506004848281518110620001585762000157620004bf565b5b60200260200101519080600181540180825580915050600190039060005260206000200160009091909190916101000a81548173ffffffffffffffffffffffffffffffffffffffff021916908373ffffffffffffffffffffffffffffffffffffffff1602179055508080620001cd9062000442565b9150506200007e565b508073ffffffffffffffffffffffffffffffffffffffff1660808173ffffffffffffffffffffffffffffffffffffffff1660601b815250505050506200055c565b60006200022e62000228846200039f565b62000376565b9050808382526020820190508285602086028201111562000254576200025362000522565b5b60005b858110156200028857816200026d888262000292565b84526020840193506020830192505060018101905062000257565b5050509392505050565b600081519050620002a38162000542565b92915050565b600082601f830112620002c157620002c06200051d565b5b8151620002d384826020860162000217565b91505092915050565b600080600060608486031215620002f857620002f76200052c565b5b600084015167ffffffffffffffff81111562000319576200031862000527565b5b6200032786828701620002a9565b935050602084015167ffffffffffffffff8111156200034b576200034a62000527565b5b6200035986828701620002a9565b92505060406200036c8682870162000292565b9150509250925092565b60006200038262000395565b90506200039082826200040c565b919050565b6000604051905090565b600067ffffffffffffffff821115620003bd57620003bc620004ee565b5b602082029050602081019050919050565b6000620003db82620003e2565b9050919050565b600073ffffffffffffffffffffffffffffffffffffffff82169050919050565b6000819050919050565b620004178262000531565b810181811067ffffffffffffffff82111715620004395762000438620004ee565b5b80604052505050565b60006200044f8262000402565b91507fffffffffffffffffffffffffffffffffffffffffffffffffffffffffffffffff82141562000485576200048462000490565b5b600182019050919050565b7f4e487b7100000000000000000000000000000000000000000000000000000000600052601160045260246000fd5b7f4e487b7100000000000000000000000000000000000000000000000000000000600052603260045260246000fd5b7f4e487b7100000000000000000000000000000000000000000000000000000000600052604160045260246000fd5b600080fd5b600080fd5b600080fd5b600080fd5b6000601f19601f8301169050919050565b6200054d81620003ce565b81146200055957600080fd5b50565b60805160601c611b3f62000590600039600081816104fa01528181610e470152818161121401526112fc0152611b3f6000f3fe608060405234801561001057600080fd5b506004361061012c5760003560e01c80639464cf4b116100ad578063c9b7c32711610071578063c9b7c3271461037e578063d63f8e591461039a578063e90db8a3146103ca578063f419ea9c146103e6578063f6876608146104025761012c565b80639464cf4b146102c85780639acd81b3146102e4578063afea2e4814610300578063b5627e4214610330578063c660d1121461034e5761012c565b8063780b47d9116100f4578063780b47d9146101e95780637be564fc146102195780637d1a44501461024a57806387733b8d1461027a57806390a8ae9b146102aa5761012c565b806326c01303146101315780632de3c90b1461014d5780633574d4c41461017d5780635e338bb31461019b5780636ad9f9df146101b9575b600080fd5b61014b600480360381019061014691906114c9565b61041e565b005b6101676004803603810190610162919061145c565b6104db565b604051610174919061178a565b60405180910390f35b6101856104f3565b604051610192919061178a565b60405180910390f35b6101a36104f8565b6040516101b0919061174f565b60405180910390f35b6101d360048036038101906101ce919061145c565b61051c565b6040516101e0919061178a565b60405180910390f35b61020360048036038101906101fe919061145c565b610591565b60405161021091906116d4565b60405180910390f35b610233600480360381019061022e919061145c565b6105c4565b6040516102419291906117a5565b60405180910390f35b610264600480360381019061025f919061145c565b610619565b604051610271919061178a565b60405180910390f35b610294600480360381019061028f9190611489565b610724565b6040516102a1919061178a565b60405180910390f35b6102b2610749565b6040516102bf919061178a565b60405180910390f35b6102e260048036038101906102dd919061151c565b61074e565b005b6102fe60048036038101906102f9919061151c565b610a5a565b005b61031a6004803603810190610315919061151c565b610b06565b604051610327919061178a565b60405180910390f35b610338610c2a565b604051610345919061178a565b60405180910390f35b6103686004803603810190610363919061151c565b610c36565b604051610375919061178a565b60405180910390f35b610398600480360381019061039391906115dc565b610d5a565b005b6103b460048036038101906103af91906115dc565b610f3f565b6040516103c191906116d4565b60405180910390f35b6103e460048036038101906103df919061155c565b610f7e565b005b61040060048036038101906103fb919061155c565b610f96565b005b61041c600480360381019061041791906115dc565b610fae565b005b60006104298361051c565b9050670de0b6b3a7640000811061046c576040517f32c072f000000000000000000000000000000000000000000000000000000000815260040160405180910390fd5b60006104788584610b06565b905060006064600a8361048b9190611866565b6104959190611835565b90506104ae8682846104a791906117df565b8733611058565b6104b98486336111ba565b60006104c48661051c565b90508084106104d257600080fd5b50505050505050565b60036020528060005260406000206000915090505481565b600a81565b7f000000000000000000000000000000000000000000000000000000000000000081565b600080600061052a846105c4565b91509150600082141561054a5768056bc75e2d631000009250505061058c565b6000606460328361055b9190611866565b6105659190611835565b905082670de0b6b3a76400008261057c9190611866565b6105869190611835565b93505050505b919050565b60016020528060005260406000206000915054906101000a900473ffffffffffffffffffffffffffffffffffffffff1681565b600080600360008473ffffffffffffffffffffffffffffffffffffffff1673ffffffffffffffffffffffffffffffffffffffff16815260200190815260200160002054915061061283610619565b9050915091565b600080600090505b60048054905081101561071e5760006004828154811061064457610643611a39565b5b9060005260206000200160009054906101000a900473ffffffffffffffffffffffffffffffffffffffff1690506000600260008673ffffffffffffffffffffffffffffffffffffffff1673ffffffffffffffffffffffffffffffffffffffff16815260200190815260200160002060008373ffffffffffffffffffffffffffffffffffffffff1673ffffffffffffffffffffffffffffffffffffffff1681526020019081526020016000205490506106fc8282610c36565b8461070791906117df565b93505050808061071690611992565b915050610621565b50919050565b6002602052816000526040600020602052806000526040600020600091509150505481565b603281565b80600081141561078a576040517fcb1d3f7d00000000000000000000000000000000000000000000000000000000815260040160405180910390fd5b600260005414156107d0576040517f08c379a00000000000000000000000000000000000000000000000000000000081526004016107c79061176a565b60405180910390fd5b600260008190555082600073ffffffffffffffffffffffffffffffffffffffff16600160008373ffffffffffffffffffffffffffffffffffffffff1673ffffffffffffffffffffffffffffffffffffffff16815260200190815260200160002060009054906101000a900473ffffffffffffffffffffffffffffffffffffffff1673ffffffffffffffffffffffffffffffffffffffff1614156108aa57806040517fcf3935950000000000000000000000000000000000000000000000000000000081526004016108a191906116d4565b60405180910390fd5b82600260003373ffffffffffffffffffffffffffffffffffffffff1673ffffffffffffffffffffffffffffffffffffffff16815260200190815260200160002060008673ffffffffffffffffffffffffffffffffffffffff1673ffffffffffffffffffffffffffffffffffffffff168152602001908152602001600020600082825461093691906117df565b92505081905550823373ffffffffffffffffffffffffffffffffffffffff167fd7243f6f8212d5188fd054141cf6ea89cfc0d91facb8c3afe2f88a135848014260405160405180910390a360008473ffffffffffffffffffffffffffffffffffffffff166323b872dd3330876040518463ffffffff1660e01b81526004016109c0939291906116ef565b602060405180830381600087803b1580156109da57600080fd5b505af11580156109ee573d6000803e3d6000fd5b505050506040513d601f19601f82011682018060405250810190610a1291906115af565b905080610a4b576040517f4dc34d1700000000000000000000000000000000000000000000000000000000815260040160405180910390fd5b50506001600081905550505050565b806000811415610a96576040517fcb1d3f7d00000000000000000000000000000000000000000000000000000000815260040160405180910390fd5b60026000541415610adc576040517f08c379a0000000000000000000000000000000000000000000000000000000008152600401610ad39061176a565b60405180910390fd5b6002600081905550610af083833333611058565b610af93361138b565b6001600081905550505050565b600080600160008573ffffffffffffffffffffffffffffffffffffffff1673ffffffffffffffffffffffffffffffffffffffff16815260200190815260200160002060009054906101000a900473ffffffffffffffffffffffffffffffffffffffff16905060008173ffffffffffffffffffffffffffffffffffffffff1663feaf968c6040518163ffffffff1660e01b815260040160a06040518083038186803b158015610bb357600080fd5b505afa158015610bc7573d6000803e3d6000fd5b505050506040513d601f19601f82011682018060405250810190610beb9190611609565b50505091505083670de0b6b3a76400006402540be40083610c0c9190611866565b610c169190611866565b610c209190611835565b9250505092915050565b670de0b6b3a764000081565b600080600160008573ffffffffffffffffffffffffffffffffffffffff1673ffffffffffffffffffffffffffffffffffffffff16815260200190815260200160002060009054906101000a900473ffffffffffffffffffffffffffffffffffffffff16905060008173ffffffffffffffffffffffffffffffffffffffff1663feaf968c6040518163ffffffff1660e01b815260040160a06040518083038186803b158015610ce357600080fd5b505afa158015610cf7573d6000803e3d6000fd5b505050506040513d601f19601f82011682018060405250810190610d1b9190611609565b505050915050670de0b6b3a7640000846402540be40083610d3c9190611866565b610d469190611866565b610d509190611835565b9250505092915050565b806000811415610d96576040517fcb1d3f7d00000000000000000000000000000000000000000000000000000000815260040160405180910390fd5b60026000541415610ddc576040517f08c379a0000000000000000000000000000000000000000000000000000000008152600401610dd39061176a565b60405180910390fd5b600260008190555081600360003373ffffffffffffffffffffffffffffffffffffffff1673ffffffffffffffffffffffffffffffffffffffff1681526020019081526020016000206000828254610e3391906117df565b92505081905550610e433361138b565b60007f000000000000000000000000000000000000000000000000000000000000000073ffffffffffffffffffffffffffffffffffffffff166340c10f1933856040518363ffffffff1660e01b8152600401610ea0929190611726565b602060405180830381600087803b158015610eba57600080fd5b505af1158015610ece573d6000803e3d6000fd5b505050506040513d601f19601f82011682018060405250810190610ef291906115af565b90506001151581151514610f32576040517f30eb0fc900000000000000000000000000000000000000000000000000000000815260040160405180910390fd5b5060016000819055505050565b60048181548110610f4f57600080fd5b906000526020600020016000915054906101000a900473ffffffffffffffffffffffffffffffffffffffff1681565b610f88838361074e565b610f9181610d5a565b505050565b610f9f81610fae565b610fa98383610a5a565b505050565b806000811415610fea576040517fcb1d3f7d00000000000000000000000000000000000000000000000000000000815260040160405180910390fd5b60026000541415611030576040517f08c379a00000000000000000000000000000000000000000000000000000000081526004016110279061176a565b60405180910390fd5b60026000819055506110438233336111ba565b61104c3361138b565b60016000819055505050565b82600260008473ffffffffffffffffffffffffffffffffffffffff1673ffffffffffffffffffffffffffffffffffffffff16815260200190815260200160002060008673ffffffffffffffffffffffffffffffffffffffff1673ffffffffffffffffffffffffffffffffffffffff16815260200190815260200160002060008282546110e491906118c0565b9250508190555060008473ffffffffffffffffffffffffffffffffffffffff1663a9059cbb83866040518363ffffffff1660e01b8152600401611128929190611726565b602060405180830381600087803b15801561114257600080fd5b505af1158015611156573d6000803e3d6000fd5b505050506040513d601f19601f8201168201806040525081019061117a91906115af565b9050806111b3576040517f4dc34d1700000000000000000000000000000000000000000000000000000000815260040160405180910390fd5b5050505050565b82600360008473ffffffffffffffffffffffffffffffffffffffff1673ffffffffffffffffffffffffffffffffffffffff168152602001908152602001600020600082825461120991906118c0565b9250508190555060007f000000000000000000000000000000000000000000000000000000000000000073ffffffffffffffffffffffffffffffffffffffff166323b872dd8330876040518463ffffffff1660e01b815260040161126f939291906116ef565b602060405180830381600087803b15801561128957600080fd5b505af115801561129d573d6000803e3d6000fd5b505050506040513d601f19601f820116820180604052508101906112c191906115af565b9050806112fa576040517f4dc34d1700000000000000000000000000000000000000000000000000000000815260040160405180910390fd5b7f000000000000000000000000000000000000000000000000000000000000000073ffffffffffffffffffffffffffffffffffffffff166342966c68856040518263ffffffff1660e01b8152600401611353919061178a565b600060405180830381600087803b15801561136d57600080fd5b505af1158015611381573d6000803e3d6000fd5b5050505050505050565b60006113968261051c565b9050670de0b6b3a76400008110156113da576040517f6c1c366600000000000000000000000000000000000000000000000000000000815260040160405180910390fd5b5050565b6000813590506113ed81611a96565b92915050565b60008151905061140281611aad565b92915050565b60008151905061141781611ac4565b92915050565b60008135905061142c81611adb565b92915050565b60008151905061144181611adb565b92915050565b60008151905061145681611af2565b92915050565b60006020828403121561147257611471611a68565b5b6000611480848285016113de565b91505092915050565b600080604083850312156114a05761149f611a68565b5b60006114ae858286016113de565b92505060206114bf858286016113de565b9150509250929050565b6000806000606084860312156114e2576114e1611a68565b5b60006114f0868287016113de565b9350506020611501868287016113de565b92505060406115128682870161141d565b9150509250925092565b6000806040838503121561153357611532611a68565b5b6000611541858286016113de565b92505060206115528582860161141d565b9150509250929050565b60008060006060848603121561157557611574611a68565b5b6000611583868287016113de565b93505060206115948682870161141d565b92505060406115a58682870161141d565b9150509250925092565b6000602082840312156115c5576115c4611a68565b5b60006115d3848285016113f3565b91505092915050565b6000602082840312156115f2576115f1611a68565b5b60006116008482850161141d565b91505092915050565b600080600080600060a0868803121561162557611624611a68565b5b600061163388828901611447565b955050602061164488828901611408565b945050604061165588828901611432565b935050606061166688828901611432565b925050608061167788828901611447565b9150509295509295909350565b61168d816118f4565b82525050565b61169c8161195c565b82525050565b60006116af601f836117ce565b91506116ba82611a6d565b602082019050919050565b6116ce8161193c565b82525050565b60006020820190506116e96000830184611684565b92915050565b60006060820190506117046000830186611684565b6117116020830185611684565b61171e60408301846116c5565b949350505050565b600060408201905061173b6000830185611684565b61174860208301846116c5565b9392505050565b60006020820190506117646000830184611693565b92915050565b60006020820190508181036000830152611783816116a2565b9050919050565b600060208201905061179f60008301846116c5565b92915050565b60006040820190506117ba60008301856116c5565b6117c760208301846116c5565b9392505050565b600082825260208201905092915050565b60006117ea8261193c565b91506117f58361193c565b9250827fffffffffffffffffffffffffffffffffffffffffffffffffffffffffffffffff0382111561182a576118296119db565b5b828201905092915050565b60006118408261193c565b915061184b8361193c565b92508261185b5761185a611a0a565b5b828204905092915050565b60006118718261193c565b915061187c8361193c565b9250817fffffffffffffffffffffffffffffffffffffffffffffffffffffffffffffffff04831182151516156118b5576118b46119db565b5b828202905092915050565b60006118cb8261193c565b91506118d68361193c565b9250828210156118e9576118e86119db565b5b828203905092915050565b60006118ff8261191c565b9050919050565b60008115159050919050565b6000819050919050565b600073ffffffffffffffffffffffffffffffffffffffff82169050919050565b6000819050919050565b600069ffffffffffffffffffff82169050919050565b60006119678261196e565b9050919050565b600061197982611980565b9050919050565b600061198b8261191c565b9050919050565b600061199d8261193c565b91507fffffffffffffffffffffffffffffffffffffffffffffffffffffffffffffffff8214156119d0576119cf6119db565b5b600182019050919050565b7f4e487b7100000000000000000000000000000000000000000000000000000000600052601160045260246000fd5b7f4e487b7100000000000000000000000000000000000000000000000000000000600052601260045260246000fd5b7f4e487b7100000000000000000000000000000000000000000000000000000000600052603260045260246000fd5b600080fd5b7f5265656e7472616e637947756172643a207265656e7472616e742063616c6c00600082015250565b611a9f816118f4565b8114611aaa57600080fd5b50565b611ab681611906565b8114611ac157600080fd5b50565b611acd81611912565b8114611ad857600080fd5b50565b611ae48161193c565b8114611aef57600080fd5b50565b611afb81611946565b8114611b0657600080fd5b5056fea26469706673582212200fe8b3d749f44e69a4cdbf1679f4b3a43d2e3608bca3fb7ccef11092d005aab964736f6c63430008070033",
  "linkReferences": {},
  "deployedLinkReferences": {}
}