{
  "_format": "hh-sol-artifact-1",
  "contractName": "Factory",
  "sourceName": "contracts/amm/uniswap-v1/Factory.sol",
  "abi": [
    {
      "inputs": [
        {
          "internalType": "address",
          "name": "tokenAddress",
          "type": "address"
        }
      ],
      "name": "createExchange",
      "outputs": [
        {
          "internalType": "address",
          "name": "exchangeAddress",
          "type": "address"
        }
      ],
      "stateMutability": "nonpayable",
      "type": "function"
    },
    {
      "inputs": [
        {
          "internalType": "address",
          "name": "",
          "type": "address"
        }
      ],
      "name": "exchanges",
      "outputs": [
        {
          "internalType": "address",
          "name": "",
          "type": "address"
        }
      ],
      "stateMutability": "view",
      "type": "function"
    },
    {
      "inputs": [
        {
          "internalType": "address",
          "name": "tokenAddress",
          "type": "address"
        }
      ],
      "name": "getExchange",
      "outputs": [
        {
          "internalType": "address",
          "name": "exchangeAddress",
          "type": "address"
        }
      ],
      "stateMutability": "view",
      "type": "function"
    }
  ],
  "bytecode": "0x608060405234801561001057600080fd5b50613c6f806100206000396000f3fe60806040523480156200001157600080fd5b5060043610620000465760003560e01c806306f2bf62146200004b5780631648f38e14620000815780637412dbb314620000b7575b600080fd5b62000069600480360381019062000063919062000427565b620000ed565b604051620000789190620004df565b60405180910390f35b6200009f600480360381019062000099919062000427565b620001c8565b604051620000ae9190620004df565b60405180910390f35b620000d56004803603810190620000cf919062000427565b620003cf565b604051620000e49190620004df565b60405180910390f35b60008060008373ffffffffffffffffffffffffffffffffffffffff1673ffffffffffffffffffffffffffffffffffffffff16815260200190815260200160002060009054906101000a900473ffffffffffffffffffffffffffffffffffffffff169050600073ffffffffffffffffffffffffffffffffffffffff168173ffffffffffffffffffffffffffffffffffffffff161415620001c3576040517f08c379a0000000000000000000000000000000000000000000000000000000008152600401620001ba9062000540565b60405180910390fd5b919050565b60008073ffffffffffffffffffffffffffffffffffffffff168273ffffffffffffffffffffffffffffffffffffffff1614156200023c576040517f08c379a000000000000000000000000000000000000000000000000000000000815260040162000233906200051e565b60405180910390fd5b600073ffffffffffffffffffffffffffffffffffffffff166000808473ffffffffffffffffffffffffffffffffffffffff1673ffffffffffffffffffffffffffffffffffffffff16815260200190815260200160002060009054906101000a900473ffffffffffffffffffffffffffffffffffffffff1673ffffffffffffffffffffffffffffffffffffffff16146200030c576040517f08c379a00000000000000000000000000000000000000000000000000000000081526004016200030390620004fc565b60405180910390fd5b6000826040516200031d9062000402565b620003299190620004df565b604051809103906000f08015801562000346573d6000803e3d6000fd5b509050806000808573ffffffffffffffffffffffffffffffffffffffff1673ffffffffffffffffffffffffffffffffffffffff16815260200190815260200160002060006101000a81548173ffffffffffffffffffffffffffffffffffffffff021916908373ffffffffffffffffffffffffffffffffffffffff16021790555080915050919050565b60006020528060005260406000206000915054906101000a900473ffffffffffffffffffffffffffffffffffffffff1681565b6135f8806200064283390190565b600081359050620004218162000627565b92915050565b60006020828403121562000440576200043f620005a7565b5b6000620004508482850162000410565b91505092915050565b620004648162000573565b82525050565b60006200047960178362000562565b91506200048682620005ac565b602082019050919050565b6000620004a060178362000562565b9150620004ad82620005d5565b602082019050919050565b6000620004c760148362000562565b9150620004d482620005fe565b602082019050919050565b6000602082019050620004f6600083018462000459565b92915050565b6000602082019050818103600083015262000517816200046a565b9050919050565b60006020820190508181036000830152620005398162000491565b9050919050565b600060208201905081810360008301526200055b81620004b8565b9050919050565b600082825260208201905092915050565b6000620005808262000587565b9050919050565b600073ffffffffffffffffffffffffffffffffffffffff82169050919050565b600080fd5b7f45786368616e676520616c726561647920657869737473000000000000000000600082015250565b7f546f6b656e2061646472657373206e6f742076616c6964000000000000000000600082015250565b7f45786368616e676520646f657320657869737473000000000000000000000000600082015250565b620006328162000573565b81146200063e57600080fd5b5056fe60806040523480156200001157600080fd5b50604051620035f8380380620035f883398181016040528101906200003791906200029a565b6040518060400160405280600c81526020017f46756e6b797377617020563100000000000000000000000000000000000000008152506040518060400160405280600881526020017f46554e4b592d56310000000000000000000000000000000000000000000000008152508160039080519060200190620000bb929190620001d3565b508060049080519060200190620000d4929190620001d3565b505050600073ffffffffffffffffffffffffffffffffffffffff168173ffffffffffffffffffffffffffffffffffffffff1614156200014a576040517f08c379a00000000000000000000000000000000000000000000000000000000081526004016200014190620002f3565b60405180910390fd5b80600560006101000a81548173ffffffffffffffffffffffffffffffffffffffff021916908373ffffffffffffffffffffffffffffffffffffffff16021790555033600660006101000a81548173ffffffffffffffffffffffffffffffffffffffff021916908373ffffffffffffffffffffffffffffffffffffffff1602179055505062000407565b828054620001e1906200035a565b90600052602060002090601f01602090048101928262000205576000855562000251565b82601f106200022057805160ff191683800117855562000251565b8280016001018555821562000251579182015b828111156200025057825182559160200191906001019062000233565b5b50905062000260919062000264565b5090565b5b808211156200027f57600081600090555060010162000265565b5090565b6000815190506200029481620003ed565b92915050565b600060208284031215620002b357620002b2620003bf565b5b6000620002c38482850162000283565b91505092915050565b6000620002db60158362000315565b9150620002e882620003c4565b602082019050919050565b600060208201905081810360008301526200030e81620002cc565b9050919050565b600082825260208201905092915050565b600062000333826200033a565b9050919050565b600073ffffffffffffffffffffffffffffffffffffffff82169050919050565b600060028204905060018216806200037357607f821691505b602082108114156200038a576200038962000390565b5b50919050565b7f4e487b7100000000000000000000000000000000000000000000000000000000600052602260045260246000fd5b600080fd5b7f696e76616c696420746f6b656e20616464726573730000000000000000000000600082015250565b620003f88162000326565b81146200040457600080fd5b50565b6131e180620004176000396000f3fe6080604052600436106101355760003560e01c806395d89b41116100ab578063a9059cbb1161006f578063a9059cbb14610460578063c2507ac11461049d578063dd62ed3e146104da578063e0486c8a14610517578063f7a7e32414610540578063f979dcd71461056957610135565b806395d89b4114610364578063966dae0e1461038f5780639c8f9f23146103ba5780639d76ea58146103f8578063a457c2d71461042357610135565b8063313ce567116100fd578063313ce56714610236578063389d9a4014610261578063395093511461027d57806351c6590a146102ba57806370a08231146102ea5780638fc7a25d1461032757610135565b806306fdde031461013a5780630902f1ac14610165578063095ea7b31461019157806318160ddd146101ce57806323b872dd146101f9575b600080fd5b34801561014657600080fd5b5061014f610585565b60405161015c91906126f3565b60405180910390f35b34801561017157600080fd5b5061017a610617565b6040516101889291906129f9565b60405180910390f35b34801561019d57600080fd5b506101b860048036038101906101b39190612137565b6106ce565b6040516101c591906126d8565b60405180910390f35b3480156101da57600080fd5b506101e36106f1565b6040516101f091906129b5565b60405180910390f35b34801561020557600080fd5b50610220600480360381019061021b91906120e4565b6106fb565b60405161022d91906126d8565b60405180910390f35b34801561024257600080fd5b5061024b61072a565b6040516102589190612a22565b60405180910390f35b61027b600480360381019061027691906121fe565b610733565b005b34801561028957600080fd5b506102a4600480360381019061029f9190612137565b610741565b6040516102b191906126d8565b60405180910390f35b6102d460048036038101906102cf91906121a4565b6107eb565b6040516102e191906129b5565b60405180910390f35b3480156102f657600080fd5b50610311600480360381019061030c919061204a565b610a61565b60405161031e91906129b5565b60405180910390f35b34801561033357600080fd5b5061034e600480360381019061034991906121a4565b610aa9565b60405161035b91906129b5565b60405180910390f35b34801561037057600080fd5b50610379610b10565b60405161038691906126f3565b60405180910390f35b34801561039b57600080fd5b506103a4610ba2565b6040516103b1919061265d565b60405180910390f35b3480156103c657600080fd5b506103e160048036038101906103dc91906121a4565b610bc8565b6040516103ef9291906129f9565b60405180910390f35b34801561040457600080fd5b5061040d610e10565b60405161041a919061265d565b60405180910390f35b34801561042f57600080fd5b5061044a60048036038101906104459190612137565b610e36565b60405161045791906126d8565b60405180910390f35b34801561046c57600080fd5b5061048760048036038101906104829190612137565b610f20565b60405161049491906126d8565b60405180910390f35b3480156104a957600080fd5b506104c460048036038101906104bf91906121a4565b610f43565b6040516104d191906129b5565b60405180910390f35b3480156104e657600080fd5b5061050160048036038101906104fc91906120a4565b610faa565b60405161050e91906129b5565b60405180910390f35b34801561052357600080fd5b5061053e6004803603810190610539919061223e565b611031565b005b34801561054c57600080fd5b506105676004803603810190610562919061227e565b611247565b005b610583600480360381019061057e91906121a4565b61159a565b005b60606003805461059490612c01565b80601f01602080910402602001604051908101604052809291908181526020018280546105c090612c01565b801561060d5780601f106105e25761010080835404028352916020019161060d565b820191906000526020600020905b8154815290600101906020018083116105f057829003601f168201915b5050505050905090565b600080600560009054906101000a900473ffffffffffffffffffffffffffffffffffffffff1673ffffffffffffffffffffffffffffffffffffffff166370a08231306040518263ffffffff1660e01b8152600401610675919061265d565b60206040518083038186803b15801561068d57600080fd5b505afa1580156106a1573d6000803e3d6000fd5b505050506040513d601f19601f820116820180604052508101906106c591906121d1565b91504790509091565b6000806106d96115a7565b90506106e68185856115af565b600191505092915050565b6000600254905090565b6000806107066115a7565b905061071385828561177a565b61071e858585611806565b60019150509392505050565b60006012905090565b61073d8282611a87565b5050565b60008061074c6115a7565b90506107e0818585600160008673ffffffffffffffffffffffffffffffffffffffff1673ffffffffffffffffffffffffffffffffffffffff16815260200190815260200160002060008973ffffffffffffffffffffffffffffffffffffffff1673ffffffffffffffffffffffffffffffffffffffff168152602001908152602001600020546107db9190612a64565b6115af565b600191505092915050565b60008060006107f8610617565b9150915060008214156108c5576000600560009054906101000a900473ffffffffffffffffffffffffffffffffffffffff1690508073ffffffffffffffffffffffffffffffffffffffff166323b872dd3330886040518463ffffffff1660e01b815260040161086993929190612678565b602060405180830381600087803b15801561088357600080fd5b505af1158015610897573d6000803e3d6000fd5b505050506040513d601f19601f820116820180604052508101906108bb9190612177565b5081935050610a0b565b34816108d19190612b45565b905060008183346108e29190612aeb565b6108ec9190612aba565b905080851015610931576040517f08c379a000000000000000000000000000000000000000000000000000000000815260040161092890612795565b60405180910390fd5b6000600560009054906101000a900473ffffffffffffffffffffffffffffffffffffffff1690508073ffffffffffffffffffffffffffffffffffffffff166323b872dd3330856040518463ffffffff1660e01b815260040161099593929190612678565b602060405180830381600087803b1580156109af57600080fd5b505af11580156109c3573d6000803e3d6000fd5b505050506040513d601f19601f820116820180604052508101906109e79190612177565b5082346109f26106f1565b6109fc9190612aeb565b610a069190612aba565b945050505b610a153384611bf9565b83343373ffffffffffffffffffffffffffffffffffffffff167f06239653922ac7bea6aa2b19dc486b9361821d37712eb796adfd38d81de278ca60405160405180910390a45050919050565b60008060008373ffffffffffffffffffffffffffffffffffffffff1673ffffffffffffffffffffffffffffffffffffffff168152602001908152602001600020549050919050565b6000808211610aed576040517f08c379a0000000000000000000000000000000000000000000000000000000008152600401610ae4906127f5565b60405180910390fd5b600080610af8610617565b91509150610b07848383611d59565b92505050919050565b606060048054610b1f90612c01565b80601f0160208091040260200160405190810160405280929190818152602001828054610b4b90612c01565b8015610b985780601f10610b6d57610100808354040283529160200191610b98565b820191906000526020600020905b815481529060010190602001808311610b7b57829003601f168201915b5050505050905090565b600660009054906101000a900473ffffffffffffffffffffffffffffffffffffffff1681565b60008060008311610c0e576040517f08c379a0000000000000000000000000000000000000000000000000000000008152600401610c0590612835565b60405180910390fd5b600080610c19610617565b91509150610c256106f1565b8582610c319190612aeb565b610c3b9190612aba565b9350610c456106f1565b8583610c519190612aeb565b610c5b9190612aba565b9250610c673386611e00565b60003373ffffffffffffffffffffffffffffffffffffffff1685604051610c8d90612648565b60006040518083038185875af1925050503d8060008114610cca576040519150601f19603f3d011682016040523d82523d6000602084013e610ccf565b606091505b5050905080610d13576040517f08c379a0000000000000000000000000000000000000000000000000000000008152600401610d0a90612815565b60405180910390fd5b600560009054906101000a900473ffffffffffffffffffffffffffffffffffffffff1673ffffffffffffffffffffffffffffffffffffffff1663a9059cbb33866040518363ffffffff1660e01b8152600401610d709291906126af565b602060405180830381600087803b158015610d8a57600080fd5b505af1158015610d9e573d6000803e3d6000fd5b505050506040513d601f19601f82011682018060405250810190610dc29190612177565b5083853373ffffffffffffffffffffffffffffffffffffffff167f0fbf06c058b90cb038a618f8c2acbf6145f8b3570fd1fa56abb8f0f3f05b36e860405160405180910390a4505050915091565b600560009054906101000a900473ffffffffffffffffffffffffffffffffffffffff1681565b600080610e416115a7565b90506000600160008373ffffffffffffffffffffffffffffffffffffffff1673ffffffffffffffffffffffffffffffffffffffff16815260200190815260200160002060008673ffffffffffffffffffffffffffffffffffffffff1673ffffffffffffffffffffffffffffffffffffffff16815260200190815260200160002054905083811015610f07576040517f08c379a0000000000000000000000000000000000000000000000000000000008152600401610efe90612975565b60405180910390fd5b610f1482868684036115af565b60019250505092915050565b600080610f2b6115a7565b9050610f38818585611806565b600191505092915050565b6000808211610f87576040517f08c379a0000000000000000000000000000000000000000000000000000000008152600401610f7e906128f5565b60405180910390fd5b600080610f92610617565b91509150610fa1848284611d59565b92505050919050565b6000600160008473ffffffffffffffffffffffffffffffffffffffff1673ffffffffffffffffffffffffffffffffffffffff16815260200190815260200160002060008373ffffffffffffffffffffffffffffffffffffffff1673ffffffffffffffffffffffffffffffffffffffff16815260200190815260200160002054905092915050565b60008061103c610617565b91509150600061104d858484611d59565b905083811015611092576040517f08c379a000000000000000000000000000000000000000000000000000000000815260040161108990612935565b60405180910390fd5b600560009054906101000a900473ffffffffffffffffffffffffffffffffffffffff1673ffffffffffffffffffffffffffffffffffffffff166323b872dd3330886040518463ffffffff1660e01b81526004016110f193929190612678565b602060405180830381600087803b15801561110b57600080fd5b505af115801561111f573d6000803e3d6000fd5b505050506040513d601f19601f820116820180604052508101906111439190612177565b5060003373ffffffffffffffffffffffffffffffffffffffff168260405161116a90612648565b60006040518083038185875af1925050503d80600081146111a7576040519150601f19603f3d011682016040523d82523d6000602084013e6111ac565b606091505b50509050806111f0576040517f08c379a00000000000000000000000000000000000000000000000000000000081526004016111e790612815565b60405180910390fd5b853373ffffffffffffffffffffffffffffffffffffffff167f7f4091b46c33e918a0f3aa42307641d17bb67029427a5369e54b3539842387058460405161123791906129b5565b60405180910390a3505050505050565b600073ffffffffffffffffffffffffffffffffffffffff168173ffffffffffffffffffffffffffffffffffffffff1614156112b7576040517f08c379a00000000000000000000000000000000000000000000000000000000081526004016112ae90612855565b60405180910390fd5b600083116112fa576040517f08c379a00000000000000000000000000000000000000000000000000000000081526004016112f190612955565b60405180910390fd5b6000600660009054906101000a900473ffffffffffffffffffffffffffffffffffffffff1673ffffffffffffffffffffffffffffffffffffffff166306f2bf62836040518263ffffffff1660e01b8152600401611357919061265d565b602060405180830381600087803b15801561137157600080fd5b505af1158015611385573d6000803e3d6000fd5b505050506040513d601f19601f820116820180604052508101906113a99190612077565b90503073ffffffffffffffffffffffffffffffffffffffff168173ffffffffffffffffffffffffffffffffffffffff16141580156114145750600073ffffffffffffffffffffffffffffffffffffffff168173ffffffffffffffffffffffffffffffffffffffff1614155b611453576040517f08c379a000000000000000000000000000000000000000000000000000000000815260040161144a90612875565b60405180910390fd5b60008061145e610617565b91509150600061146f878484611d59565b9050600560009054906101000a900473ffffffffffffffffffffffffffffffffffffffff1673ffffffffffffffffffffffffffffffffffffffff166323b872dd33308a6040518463ffffffff1660e01b81526004016114d093929190612678565b602060405180830381600087803b1580156114ea57600080fd5b505af11580156114fe573d6000803e3d6000fd5b505050506040513d601f19601f820116820180604052508101906115229190612177565b508373ffffffffffffffffffffffffffffffffffffffff1663389d9a408288336040518463ffffffff1660e01b815260040161155f9291906129d0565b6000604051808303818588803b15801561157857600080fd5b505af115801561158c573d6000803e3d6000fd5b505050505050505050505050565b6115a48133611a87565b50565b600033905090565b600073ffffffffffffffffffffffffffffffffffffffff168373ffffffffffffffffffffffffffffffffffffffff16141561161f576040517f08c379a000000000000000000000000000000000000000000000000000000000815260040161161690612915565b60405180910390fd5b600073ffffffffffffffffffffffffffffffffffffffff168273ffffffffffffffffffffffffffffffffffffffff16141561168f576040517f08c379a000000000000000000000000000000000000000000000000000000000815260040161168690612775565b60405180910390fd5b80600160008573ffffffffffffffffffffffffffffffffffffffff1673ffffffffffffffffffffffffffffffffffffffff16815260200190815260200160002060008473ffffffffffffffffffffffffffffffffffffffff1673ffffffffffffffffffffffffffffffffffffffff168152602001908152602001600020819055508173ffffffffffffffffffffffffffffffffffffffff168373ffffffffffffffffffffffffffffffffffffffff167f8c5be1e5ebec7d5bd14f71427d1e84f3dd0314c0f7b2291e5b200ac8c7c3b9258360405161176d91906129b5565b60405180910390a3505050565b60006117868484610faa565b90507fffffffffffffffffffffffffffffffffffffffffffffffffffffffffffffffff811461180057818110156117f2576040517f08c379a00000000000000000000000000000000000000000000000000000000081526004016117e9906127b5565b60405180910390fd5b6117ff84848484036115af565b5b50505050565b600073ffffffffffffffffffffffffffffffffffffffff168373ffffffffffffffffffffffffffffffffffffffff161415611876576040517f08c379a000000000000000000000000000000000000000000000000000000000815260040161186d906128d5565b60405180910390fd5b600073ffffffffffffffffffffffffffffffffffffffff168273ffffffffffffffffffffffffffffffffffffffff1614156118e6576040517f08c379a00000000000000000000000000000000000000000000000000000000081526004016118dd90612715565b60405180910390fd5b6118f1838383611fd7565b60008060008573ffffffffffffffffffffffffffffffffffffffff1673ffffffffffffffffffffffffffffffffffffffff16815260200190815260200160002054905081811015611977576040517f08c379a000000000000000000000000000000000000000000000000000000000815260040161196e906127d5565b60405180910390fd5b8181036000808673ffffffffffffffffffffffffffffffffffffffff1673ffffffffffffffffffffffffffffffffffffffff16815260200190815260200160002081905550816000808573ffffffffffffffffffffffffffffffffffffffff1673ffffffffffffffffffffffffffffffffffffffff1681526020019081526020016000206000828254611a0a9190612a64565b925050819055508273ffffffffffffffffffffffffffffffffffffffff168473ffffffffffffffffffffffffffffffffffffffff167fddf252ad1be2c89b69c2b068fc378daa952ba7f163c4a11628f55a4df523b3ef84604051611a6e91906129b5565b60405180910390a3611a81848484611fdc565b50505050565b600080611a92610617565b915091506000611aae343484611aa89190612b45565b85611d59565b905084811015611af3576040517f08c379a0000000000000000000000000000000000000000000000000000000008152600401611aea90612735565b60405180910390fd5b600560009054906101000a900473ffffffffffffffffffffffffffffffffffffffff1673ffffffffffffffffffffffffffffffffffffffff1663a9059cbb85836040518363ffffffff1660e01b8152600401611b509291906126af565b602060405180830381600087803b158015611b6a57600080fd5b505af1158015611b7e573d6000803e3d6000fd5b505050506040513d601f19601f82011682018060405250810190611ba29190612177565b50348473ffffffffffffffffffffffffffffffffffffffff167fcd60aa75dea3072fbc07ae6d7d856b5dc5f4eee88854f5b4abf7b680ef8bc50f83604051611bea91906129b5565b60405180910390a35050505050565b600073ffffffffffffffffffffffffffffffffffffffff168273ffffffffffffffffffffffffffffffffffffffff161415611c69576040517f08c379a0000000000000000000000000000000000000000000000000000000008152600401611c6090612995565b60405180910390fd5b611c7560008383611fd7565b8060026000828254611c879190612a64565b92505081905550806000808473ffffffffffffffffffffffffffffffffffffffff1673ffffffffffffffffffffffffffffffffffffffff1681526020019081526020016000206000828254611cdc9190612a64565b925050819055508173ffffffffffffffffffffffffffffffffffffffff16600073ffffffffffffffffffffffffffffffffffffffff167fddf252ad1be2c89b69c2b068fc378daa952ba7f163c4a11628f55a4df523b3ef83604051611d4191906129b5565b60405180910390a3611d5560008383611fdc565b5050565b60008083118015611d6a5750600082115b611da9576040517f08c379a0000000000000000000000000000000000000000000000000000000008152600401611da0906128b5565b60405180910390fd5b60006103e585611db99190612aeb565b905060008382611dc99190612aeb565b9050600082866103e8611ddc9190612aeb565b611de69190612a64565b90508082611df49190612aba565b93505050509392505050565b600073ffffffffffffffffffffffffffffffffffffffff168273ffffffffffffffffffffffffffffffffffffffff161415611e70576040517f08c379a0000000000000000000000000000000000000000000000000000000008152600401611e6790612895565b60405180910390fd5b611e7c82600083611fd7565b60008060008473ffffffffffffffffffffffffffffffffffffffff1673ffffffffffffffffffffffffffffffffffffffff16815260200190815260200160002054905081811015611f02576040517f08c379a0000000000000000000000000000000000000000000000000000000008152600401611ef990612755565b60405180910390fd5b8181036000808573ffffffffffffffffffffffffffffffffffffffff1673ffffffffffffffffffffffffffffffffffffffff168152602001908152602001600020819055508160026000828254611f599190612b45565b92505081905550600073ffffffffffffffffffffffffffffffffffffffff168373ffffffffffffffffffffffffffffffffffffffff167fddf252ad1be2c89b69c2b068fc378daa952ba7f163c4a11628f55a4df523b3ef84604051611fbe91906129b5565b60405180910390a3611fd283600084611fdc565b505050565b505050565b505050565b600081359050611ff081613166565b92915050565b60008151905061200581613166565b92915050565b60008151905061201a8161317d565b92915050565b60008135905061202f81613194565b92915050565b60008151905061204481613194565b92915050565b6000602082840312156120605761205f612cc0565b5b600061206e84828501611fe1565b91505092915050565b60006020828403121561208d5761208c612cc0565b5b600061209b84828501611ff6565b91505092915050565b600080604083850312156120bb576120ba612cc0565b5b60006120c985828601611fe1565b92505060206120da85828601611fe1565b9150509250929050565b6000806000606084860312156120fd576120fc612cc0565b5b600061210b86828701611fe1565b935050602061211c86828701611fe1565b925050604061212d86828701612020565b9150509250925092565b6000806040838503121561214e5761214d612cc0565b5b600061215c85828601611fe1565b925050602061216d85828601612020565b9150509250929050565b60006020828403121561218d5761218c612cc0565b5b600061219b8482850161200b565b91505092915050565b6000602082840312156121ba576121b9612cc0565b5b60006121c884828501612020565b91505092915050565b6000602082840312156121e7576121e6612cc0565b5b60006121f584828501612035565b91505092915050565b6000806040838503121561221557612214612cc0565b5b600061222385828601612020565b925050602061223485828601611fe1565b9150509250929050565b6000806040838503121561225557612254612cc0565b5b600061226385828601612020565b925050602061227485828601612020565b9150509250929050565b60008060006060848603121561229757612296612cc0565b5b60006122a586828701612020565b93505060206122b686828701612020565b92505060406122c786828701611fe1565b9150509250925092565b6122da81612b79565b82525050565b6122e981612b8b565b82525050565b60006122fa82612a3d565b6123048185612a53565b9350612314818560208601612bce565b61231d81612cc5565b840191505092915050565b6000612335602383612a53565b915061234082612cd6565b604082019050919050565b6000612358601083612a53565b915061236382612d25565b602082019050919050565b600061237b602283612a53565b915061238682612d4e565b604082019050919050565b600061239e602283612a53565b91506123a982612d9d565b604082019050919050565b60006123c1601983612a53565b91506123cc82612dec565b602082019050919050565b60006123e4601d83612a53565b91506123ef82612e15565b602082019050919050565b6000612407602683612a53565b915061241282612e3e565b604082019050919050565b600061242a601b83612a53565b915061243582612e8d565b602082019050919050565b600061244d601483612a53565b915061245882612eb6565b602082019050919050565b6000612470602083612a53565b915061247b82612edf565b602082019050919050565b6000612493601783612a53565b915061249e82612f08565b602082019050919050565b60006124b6601a83612a53565b91506124c182612f31565b602082019050919050565b60006124d9602183612a53565b91506124e482612f5a565b604082019050919050565b60006124fc601783612a53565b915061250782612fa9565b602082019050919050565b600061251f602583612a53565b915061252a82612fd2565b604082019050919050565b6000612542601983612a53565b915061254d82613021565b602082019050919050565b6000612565600083612a48565b91506125708261304a565b600082019050919050565b6000612588602483612a53565b91506125938261304d565b604082019050919050565b60006125ab600e83612a53565b91506125b68261309c565b602082019050919050565b60006125ce601783612a53565b91506125d9826130c5565b602082019050919050565b60006125f1602583612a53565b91506125fc826130ee565b604082019050919050565b6000612614601f83612a53565b915061261f8261313d565b602082019050919050565b61263381612bb7565b82525050565b61264281612bc1565b82525050565b600061265382612558565b9150819050919050565b600060208201905061267260008301846122d1565b92915050565b600060608201905061268d60008301866122d1565b61269a60208301856122d1565b6126a7604083018461262a565b949350505050565b60006040820190506126c460008301856122d1565b6126d1602083018461262a565b9392505050565b60006020820190506126ed60008301846122e0565b92915050565b6000602082019050818103600083015261270d81846122ef565b905092915050565b6000602082019050818103600083015261272e81612328565b9050919050565b6000602082019050818103600083015261274e8161234b565b9050919050565b6000602082019050818103600083015261276e8161236e565b9050919050565b6000602082019050818103600083015261278e81612391565b9050919050565b600060208201905081810360008301526127ae816123b4565b9050919050565b600060208201905081810360008301526127ce816123d7565b9050919050565b600060208201905081810360008301526127ee816123fa565b9050919050565b6000602082019050818103600083015261280e8161241d565b9050919050565b6000602082019050818103600083015261282e81612440565b9050919050565b6000602082019050818103600083015261284e81612463565b9050919050565b6000602082019050818103600083015261286e81612486565b9050919050565b6000602082019050818103600083015261288e816124a9565b9050919050565b600060208201905081810360008301526128ae816124cc565b9050919050565b600060208201905081810360008301526128ce816124ef565b9050919050565b600060208201905081810360008301526128ee81612512565b9050919050565b6000602082019050818103600083015261290e81612535565b9050919050565b6000602082019050818103600083015261292e8161257b565b9050919050565b6000602082019050818103600083015261294e8161259e565b9050919050565b6000602082019050818103600083015261296e816125c1565b9050919050565b6000602082019050818103600083015261298e816125e4565b9050919050565b600060208201905081810360008301526129ae81612607565b9050919050565b60006020820190506129ca600083018461262a565b92915050565b60006040820190506129e5600083018561262a565b6129f260208301846122d1565b9392505050565b6000604082019050612a0e600083018561262a565b612a1b602083018461262a565b9392505050565b6000602082019050612a376000830184612639565b92915050565b600081519050919050565b600081905092915050565b600082825260208201905092915050565b6000612a6f82612bb7565b9150612a7a83612bb7565b9250827fffffffffffffffffffffffffffffffffffffffffffffffffffffffffffffffff03821115612aaf57612aae612c33565b5b828201905092915050565b6000612ac582612bb7565b9150612ad083612bb7565b925082612ae057612adf612c62565b5b828204905092915050565b6000612af682612bb7565b9150612b0183612bb7565b9250817fffffffffffffffffffffffffffffffffffffffffffffffffffffffffffffffff0483118215151615612b3a57612b39612c33565b5b828202905092915050565b6000612b5082612bb7565b9150612b5b83612bb7565b925082821015612b6e57612b6d612c33565b5b828203905092915050565b6000612b8482612b97565b9050919050565b60008115159050919050565b600073ffffffffffffffffffffffffffffffffffffffff82169050919050565b6000819050919050565b600060ff82169050919050565b60005b83811015612bec578082015181840152602081019050612bd1565b83811115612bfb576000848401525b50505050565b60006002820490506001821680612c1957607f821691505b60208210811415612c2d57612c2c612c91565b5b50919050565b7f4e487b7100000000000000000000000000000000000000000000000000000000600052601160045260246000fd5b7f4e487b7100000000000000000000000000000000000000000000000000000000600052601260045260246000fd5b7f4e487b7100000000000000000000000000000000000000000000000000000000600052602260045260246000fd5b600080fd5b6000601f19601f8301169050919050565b7f45524332303a207472616e7366657220746f20746865207a65726f206164647260008201527f6573730000000000000000000000000000000000000000000000000000000000602082015250565b7f546f6b656e20416d6f756e74206c6f7700000000000000000000000000000000600082015250565b7f45524332303a206275726e20616d6f756e7420657863656564732062616c616e60008201527f6365000000000000000000000000000000000000000000000000000000000000602082015250565b7f45524332303a20617070726f766520746f20746865207a65726f20616464726560008201527f7373000000000000000000000000000000000000000000000000000000000000602082015250565b7f496e73756666696369656e7420746f6b656e20616d6f756e7400000000000000600082015250565b7f45524332303a20696e73756666696369656e7420616c6c6f77616e6365000000600082015250565b7f45524332303a207472616e7366657220616d6f756e742065786365656473206260008201527f616c616e63650000000000000000000000000000000000000000000000000000602082015250565b7f546f6b656e20616d6f756e742063616e6e6f74206265206e756c6c0000000000600082015250565b7f4661696c656420746f2073656e64204574686572000000000000000000000000600082015250565b7f416d6f756e74206f6620706f6f6c20746f6b656e2063616e6e6f742062652030600082015250565b7f546f6b656e2061646472657373206e6f742076616c6964000000000000000000600082015250565b7f45786368616e67652061646472657373206e6f742076616c6964000000000000600082015250565b7f45524332303a206275726e2066726f6d20746865207a65726f2061646472657360008201527f7300000000000000000000000000000000000000000000000000000000000000602082015250565b7f52657365727665732063616e6e6f74206265206e756c6c000000000000000000600082015250565b7f45524332303a207472616e736665722066726f6d20746865207a65726f20616460008201527f6472657373000000000000000000000000000000000000000000000000000000602082015250565b7f45746820616d6f756e742063616e6e6f74206265206e756c6c00000000000000600082015250565b50565b7f45524332303a20617070726f76652066726f6d20746865207a65726f2061646460008201527f7265737300000000000000000000000000000000000000000000000000000000602082015250565b7f45746820416d6f756e74206c6f77000000000000000000000000000000000000600082015250565b7f546f6b656e7320616d6f756e74206e6f742076616c6964000000000000000000600082015250565b7f45524332303a2064656372656173656420616c6c6f77616e63652062656c6f7760008201527f207a65726f000000000000000000000000000000000000000000000000000000602082015250565b7f45524332303a206d696e7420746f20746865207a65726f206164647265737300600082015250565b61316f81612b79565b811461317a57600080fd5b50565b61318681612b8b565b811461319157600080fd5b50565b61319d81612bb7565b81146131a857600080fd5b5056fea26469706673582212207c8bad5900dc33b843f7dda429e3a5fb83ebd19f5c1c9c6dd5e182e415cd59b464736f6c63430008070033a26469706673582212209a249e0eac364a7acf7e02565bc44f4ae8edcd818d506673d83bc098500f78ee64736f6c63430008070033",
  "linkReferences": {},
  "deployedLinkReferences": {}
}