{
  "address": "0x9A676e781A523b5d0C0e43731313A708CB607508",
  "abi": [
    {
      "inputs": [
        {
          "internalType": "address",
          "name": "_priceFeed",
          "type": "address"
        },
        {
          "internalType": "address",
          "name": "_daiAddr",
          "type": "address"
        }
      ],
      "stateMutability": "nonpayable",
      "type": "constructor"
    },
    {
      "inputs": [],
      "name": "NeedsMoreThanZero",
      "type": "error"
    },
    {
      "inputs": [
        {
          "internalType": "uint256",
          "name": "_optionId",
          "type": "uint256"
        }
      ],
      "name": "OptionNotValid",
      "type": "error"
    },
    {
      "inputs": [],
      "name": "TransferFailed",
      "type": "error"
    },
    {
      "anonymous": false,
      "inputs": [
        {
          "indexed": false,
          "internalType": "address",
          "name": "buyer",
          "type": "address"
        },
        {
          "indexed": false,
          "internalType": "uint256",
          "name": "id",
          "type": "uint256"
        }
      ],
      "name": "CallOptionBought",
      "type": "event"
    },
    {
      "anonymous": false,
      "inputs": [
        {
          "indexed": false,
          "internalType": "address",
          "name": "buyer",
          "type": "address"
        },
        {
          "indexed": false,
          "internalType": "uint256",
          "name": "id",
          "type": "uint256"
        }
      ],
      "name": "CallOptionExercised",
      "type": "event"
    },
    {
      "anonymous": false,
      "inputs": [
        {
          "indexed": false,
          "internalType": "uint256",
          "name": "id",
          "type": "uint256"
        },
        {
          "indexed": false,
          "internalType": "address",
          "name": "writer",
          "type": "address"
        },
        {
          "indexed": false,
          "internalType": "uint256",
          "name": "amount",
          "type": "uint256"
        },
        {
          "indexed": false,
          "internalType": "uint256",
          "name": "strike",
          "type": "uint256"
        },
        {
          "indexed": false,
          "internalType": "uint256",
          "name": "premium",
          "type": "uint256"
        },
        {
          "indexed": false,
          "internalType": "uint256",
          "name": "expiration",
          "type": "uint256"
        },
        {
          "indexed": false,
          "internalType": "uint256",
          "name": "value",
          "type": "uint256"
        }
      ],
      "name": "CallOptionOpen",
      "type": "event"
    },
    {
      "anonymous": false,
      "inputs": [
        {
          "indexed": false,
          "internalType": "address",
          "name": "writer",
          "type": "address"
        },
        {
          "indexed": false,
          "internalType": "uint256",
          "name": "id",
          "type": "uint256"
        },
        {
          "indexed": false,
          "internalType": "uint256",
          "name": "value",
          "type": "uint256"
        }
      ],
      "name": "FundsRetrieved",
      "type": "event"
    },
    {
      "anonymous": false,
      "inputs": [
        {
          "indexed": false,
          "internalType": "address",
          "name": "buyer",
          "type": "address"
        },
        {
          "indexed": false,
          "internalType": "uint256",
          "name": "Id",
          "type": "uint256"
        }
      ],
      "name": "OptionExpiresWorthless",
      "type": "event"
    },
    {
      "anonymous": false,
      "inputs": [
        {
          "indexed": true,
          "internalType": "address",
          "name": "previousOwner",
          "type": "address"
        },
        {
          "indexed": true,
          "internalType": "address",
          "name": "newOwner",
          "type": "address"
        }
      ],
      "name": "OwnershipTransferred",
      "type": "event"
    },
    {
      "anonymous": false,
      "inputs": [
        {
          "indexed": false,
          "internalType": "address",
          "name": "buyer",
          "type": "address"
        },
        {
          "indexed": false,
          "internalType": "uint256",
          "name": "id",
          "type": "uint256"
        }
      ],
      "name": "PutOptionBought",
      "type": "event"
    },
    {
      "anonymous": false,
      "inputs": [
        {
          "indexed": false,
          "internalType": "address",
          "name": "buyer",
          "type": "address"
        },
        {
          "indexed": false,
          "internalType": "uint256",
          "name": "id",
          "type": "uint256"
        }
      ],
      "name": "PutOptionExercised",
      "type": "event"
    },
    {
      "anonymous": false,
      "inputs": [
        {
          "indexed": false,
          "internalType": "uint256",
          "name": "id",
          "type": "uint256"
        },
        {
          "indexed": false,
          "internalType": "address",
          "name": "writer",
          "type": "address"
        },
        {
          "indexed": false,
          "internalType": "uint256",
          "name": "amount",
          "type": "uint256"
        },
        {
          "indexed": false,
          "internalType": "uint256",
          "name": "strike",
          "type": "uint256"
        },
        {
          "indexed": false,
          "internalType": "uint256",
          "name": "premium",
          "type": "uint256"
        },
        {
          "indexed": false,
          "internalType": "uint256",
          "name": "expiration",
          "type": "uint256"
        },
        {
          "indexed": false,
          "internalType": "uint256",
          "name": "value",
          "type": "uint256"
        }
      ],
      "name": "PutOptionOpen",
      "type": "event"
    },
    {
      "inputs": [
        {
          "internalType": "uint256",
          "name": "_optionId",
          "type": "uint256"
        }
      ],
      "name": "buyCallOption",
      "outputs": [],
      "stateMutability": "nonpayable",
      "type": "function"
    },
    {
      "inputs": [
        {
          "internalType": "uint256",
          "name": "_optionId",
          "type": "uint256"
        }
      ],
      "name": "buyPutOption",
      "outputs": [],
      "stateMutability": "nonpayable",
      "type": "function"
    },
    {
      "inputs": [
        {
          "internalType": "uint256",
          "name": "_optionId",
          "type": "uint256"
        },
        {
          "internalType": "uint256",
          "name": "_daiAmount",
          "type": "uint256"
        }
      ],
      "name": "exerciseCallOption",
      "outputs": [],
      "stateMutability": "payable",
      "type": "function"
    },
    {
      "inputs": [
        {
          "internalType": "uint256",
          "name": "_optionId",
          "type": "uint256"
        },
        {
          "internalType": "uint256",
          "name": "_daiAmount",
          "type": "uint256"
        }
      ],
      "name": "exercisePutOption",
      "outputs": [],
      "stateMutability": "payable",
      "type": "function"
    },
    {
      "inputs": [
        {
          "internalType": "uint256",
          "name": "_amountInDai",
          "type": "uint256"
        }
      ],
      "name": "getPriceFeed",
      "outputs": [
        {
          "internalType": "uint256",
          "name": "",
          "type": "uint256"
        }
      ],
      "stateMutability": "view",
      "type": "function"
    },
    {
      "inputs": [
        {
          "internalType": "uint256",
          "name": "_optionId",
          "type": "uint256"
        },
        {
          "internalType": "uint256",
          "name": "_daiAmount",
          "type": "uint256"
        }
      ],
      "name": "optionExpiresWorthless",
      "outputs": [],
      "stateMutability": "nonpayable",
      "type": "function"
    },
    {
      "inputs": [],
      "name": "owner",
      "outputs": [
        {
          "internalType": "address",
          "name": "",
          "type": "address"
        }
      ],
      "stateMutability": "view",
      "type": "function"
    },
    {
      "inputs": [],
      "name": "renounceOwnership",
      "outputs": [],
      "stateMutability": "nonpayable",
      "type": "function"
    },
    {
      "inputs": [
        {
          "internalType": "uint256",
          "name": "_optionId",
          "type": "uint256"
        }
      ],
      "name": "retrieveExpiredFunds",
      "outputs": [],
      "stateMutability": "nonpayable",
      "type": "function"
    },
    {
      "inputs": [],
      "name": "s_optionCounter",
      "outputs": [
        {
          "internalType": "uint256",
          "name": "",
          "type": "uint256"
        }
      ],
      "stateMutability": "view",
      "type": "function"
    },
    {
      "inputs": [],
      "name": "s_optionId",
      "outputs": [
        {
          "internalType": "uint256",
          "name": "",
          "type": "uint256"
        }
      ],
      "stateMutability": "view",
      "type": "function"
    },
    {
      "inputs": [
        {
          "internalType": "uint256",
          "name": "",
          "type": "uint256"
        }
      ],
      "name": "s_optionIdToOption",
      "outputs": [
        {
          "internalType": "address",
          "name": "writer",
          "type": "address"
        },
        {
          "internalType": "address",
          "name": "buyer",
          "type": "address"
        },
        {
          "internalType": "uint256",
          "name": "amount",
          "type": "uint256"
        },
        {
          "internalType": "uint256",
          "name": "strike",
          "type": "uint256"
        },
        {
          "internalType": "uint256",
          "name": "premiumDue",
          "type": "uint256"
        },
        {
          "internalType": "uint256",
          "name": "expiration",
          "type": "uint256"
        },
        {
          "internalType": "uint256",
          "name": "collateral",
          "type": "uint256"
        },
        {
          "internalType": "enum Options.OptionState",
          "name": "optionState",
          "type": "uint8"
        },
        {
          "internalType": "enum Options.OptionType",
          "name": "optionType",
          "type": "uint8"
        }
      ],
      "stateMutability": "view",
      "type": "function"
    },
    {
      "inputs": [
        {
          "internalType": "address",
          "name": "",
          "type": "address"
        }
      ],
      "name": "s_tokenToEthFeed",
      "outputs": [
        {
          "internalType": "address",
          "name": "",
          "type": "address"
        }
      ],
      "stateMutability": "view",
      "type": "function"
    },
    {
      "inputs": [
        {
          "internalType": "address",
          "name": "",
          "type": "address"
        },
        {
          "internalType": "uint256",
          "name": "",
          "type": "uint256"
        }
      ],
      "name": "s_tradersPosition",
      "outputs": [
        {
          "internalType": "uint256",
          "name": "",
          "type": "uint256"
        }
      ],
      "stateMutability": "view",
      "type": "function"
    },
    {
      "inputs": [
        {
          "internalType": "address",
          "name": "newOwner",
          "type": "address"
        }
      ],
      "name": "transferOwnership",
      "outputs": [],
      "stateMutability": "nonpayable",
      "type": "function"
    },
    {
      "inputs": [
        {
          "internalType": "uint256",
          "name": "_amount",
          "type": "uint256"
        },
        {
          "internalType": "uint256",
          "name": "_strike",
          "type": "uint256"
        },
        {
          "internalType": "uint256",
          "name": "_premiumDue",
          "type": "uint256"
        },
        {
          "internalType": "uint256",
          "name": "_daysToExpiry",
          "type": "uint256"
        },
        {
          "internalType": "uint256",
          "name": "_daiAmount",
          "type": "uint256"
        }
      ],
      "name": "writeCallOption",
      "outputs": [],
      "stateMutability": "payable",
      "type": "function"
    },
    {
      "inputs": [
        {
          "internalType": "uint256",
          "name": "_amount",
          "type": "uint256"
        },
        {
          "internalType": "uint256",
          "name": "_strike",
          "type": "uint256"
        },
        {
          "internalType": "uint256",
          "name": "_premiumDue",
          "type": "uint256"
        },
        {
          "internalType": "uint256",
          "name": "_daysToExpiry",
          "type": "uint256"
        },
        {
          "internalType": "uint256",
          "name": "_daiAmount",
          "type": "uint256"
        }
      ],
      "name": "writePutOption",
      "outputs": [],
      "stateMutability": "payable",
      "type": "function"
    }
  ],
  "transactionHash": "0x006c36d1197fa53df1da0ea431071e800cea1c27f574b71838133863d2fb02c0",
  "args": [
    "0x5FbDB2315678afecb367f032d93F642f64180aa3",
    "0x9fE46736679d2D9a65F0992F2272dE9f3c7fa6e0"
  ],
  "numDeployments": 1,
  "solcInputHash": "f46110d259fb4b96321f34a30f5848dd",
  "bytecode": "0x60806040523480156200001157600080fd5b5060405162004868380380620048688339818101604052810190620000379190620001ce565b60016000819055506200005f62000053620000e960201b60201c565b620000f160201b60201c565b81600260006101000a81548173ffffffffffffffffffffffffffffffffffffffff021916908373ffffffffffffffffffffffffffffffffffffffff16021790555080600360006101000a81548173ffffffffffffffffffffffffffffffffffffffff021916908373ffffffffffffffffffffffffffffffffffffffff160217905550505062000268565b600033905090565b6000600160009054906101000a900473ffffffffffffffffffffffffffffffffffffffff16905081600160006101000a81548173ffffffffffffffffffffffffffffffffffffffff021916908373ffffffffffffffffffffffffffffffffffffffff1602179055508173ffffffffffffffffffffffffffffffffffffffff168173ffffffffffffffffffffffffffffffffffffffff167f8be0079c531659141344cd1fd0a4f28419497f9722a3daafe3b4186f6b6457e060405160405180910390a35050565b600081519050620001c8816200024e565b92915050565b60008060408385031215620001e857620001e762000249565b5b6000620001f885828601620001b7565b92505060206200020b85828601620001b7565b9150509250929050565b6000620002228262000229565b9050919050565b600073ffffffffffffffffffffffffffffffffffffffff82169050919050565b600080fd5b620002598162000215565b81146200026557600080fd5b50565b6145f080620002786000396000f3fe6080604052600436106100fe5760003560e01c8063790eee2e11610095578063b9c88e1a11610064578063b9c88e1a146102fe578063d5ad66391461031a578063d811191b14610345578063f2fde38b1461036e578063f91d443f14610397576100fe565b8063790eee2e1461026557806389a396351461028e5780638da5cb5b146102b7578063a7419250146102e2576100fe565b8063589ca814116100d1578063589ca8141461018f5780636825834d146101d4578063715018a61461021157806378ea768314610228576100fe565b806306411a821461010357806308f1f9621461011f57806309c4cea41461013b578063411939ef14610164575b600080fd5b61011d600480360381019061011891906135f7565b6103d4565b005b61013960048036038101906101349190613637565b610b2e565b005b34801561014757600080fd5b50610162600480360381019061015d91906135ca565b610ee9565b005b34801561017057600080fd5b50610179611593565b6040516101869190613e5f565b60405180910390f35b34801561019b57600080fd5b506101b660048036038101906101b191906135ca565b611599565b6040516101cb99989796959493929190613ad2565b60405180910390f35b3480156101e057600080fd5b506101fb60048036038101906101f69190613530565b611641565b6040516102089190613a80565b60405180910390f35b34801561021d57600080fd5b50610226611674565b005b34801561023457600080fd5b5061024f600480360381019061024a919061355d565b6116fc565b60405161025c9190613e5f565b60405180910390f35b34801561027157600080fd5b5061028c600480360381019061028791906135ca565b61172d565b005b34801561029a57600080fd5b506102b560048036038101906102b091906135f7565b611b4f565b005b3480156102c357600080fd5b506102cc612074565b6040516102d99190613a80565b60405180910390f35b6102fc60048036038101906102f791906135f7565b61209e565b005b61031860048036038101906103139190613637565b6127b1565b005b34801561032657600080fd5b5061032f612b6b565b60405161033c9190613e5f565b60405180910390f35b34801561035157600080fd5b5061036c600480360381019061036791906135ca565b612b71565b005b34801561037a57600080fd5b5061039560048036038101906103909190613530565b61321c565b005b3480156103a357600080fd5b506103be60048036038101906103b991906135ca565b613314565b6040516103cb9190613e5f565b60405180910390f35b81600073ffffffffffffffffffffffffffffffffffffffff166007600083815260200190815260200160002060000160009054906101000a900473ffffffffffffffffffffffffffffffffffffffff1673ffffffffffffffffffffffffffffffffffffffff16141561047d57806040517fa7a863340000000000000000000000000000000000000000000000000000000081526004016104749190613e5f565b60405180910390fd5b600260005414156104c3576040517f08c379a00000000000000000000000000000000000000000000000000000000081526004016104ba90613e3f565b60405180910390fd5b6002600081905550600060076000858152602001908152602001600020604051806101200160405290816000820160009054906101000a900473ffffffffffffffffffffffffffffffffffffffff1673ffffffffffffffffffffffffffffffffffffffff1673ffffffffffffffffffffffffffffffffffffffff1681526020016001820160009054906101000a900473ffffffffffffffffffffffffffffffffffffffff1673ffffffffffffffffffffffffffffffffffffffff1673ffffffffffffffffffffffffffffffffffffffff16815260200160028201548152602001600382015481526020016004820154815260200160058201548152602001600682015481526020016007820160009054906101000a900460ff1660038111156105ef576105ee61413f565b5b60038111156106015761060061413f565b5b81526020016007820160019054906101000a900460ff16600181111561062a5761062961413f565b5b600181111561063c5761063b61413f565b5b815250509050806020015173ffffffffffffffffffffffffffffffffffffffff163373ffffffffffffffffffffffffffffffffffffffff16146106b4576040517f08c379a00000000000000000000000000000000000000000000000000000000081526004016106ab90613d5f565b60405180910390fd5b600160038111156106c8576106c761413f565b5b8160e0015160038111156106df576106de61413f565b5b1461071f576040517f08c379a000000000000000000000000000000000000000000000000000000000815260040161071690613d7f565b60405180910390fd5b428160a0015110610765576040517f08c379a000000000000000000000000000000000000000000000000000000000815260040161075c90613e1f565b60405180910390fd5b600061077084613314565b826040015161077f9190613f8c565b90506000818561078f9190613f5b565b9050826060015181116107d7576040517f08c379a00000000000000000000000000000000000000000000000000000000081526004016107ce90613d9f565b60405180910390fd5b6000600360009054906101000a900473ffffffffffffffffffffffffffffffffffffffff1673ffffffffffffffffffffffffffffffffffffffff166323b872dd333087606001516040518463ffffffff1660e01b815260040161083c93929190613a9b565b602060405180830381600087803b15801561085657600080fd5b505af115801561086a573d6000803e3d6000fd5b505050506040513d601f19601f8201168201806040525081019061088e919061359d565b9050806108c7576040517f90b8ec1800000000000000000000000000000000000000000000000000000000815260040160405180910390fd5b8360c0015147101561090e576040517f08c379a000000000000000000000000000000000000000000000000000000000815260040161090590613cbf565b60405180910390fd5b3373ffffffffffffffffffffffffffffffffffffffff168460c0015160405161093690613a6b565b60006040518083038185875af1925050503d8060008114610973576040519150601f19603f3d011682016040523d82523d6000602084013e610978565b606091505b505080915050806109b5576040517f90b8ec1800000000000000000000000000000000000000000000000000000000815260040160405180910390fd5b600360009054906101000a900473ffffffffffffffffffffffffffffffffffffffff1673ffffffffffffffffffffffffffffffffffffffff1663a9059cbb856000015186606001516040518363ffffffff1660e01b8152600401610a1a929190613b5f565b602060405180830381600087803b158015610a3457600080fd5b505af1158015610a48573d6000803e3d6000fd5b505050506040513d601f19601f82011682018060405250810190610a6c919061359d565b905080610aa5576040517f90b8ec1800000000000000000000000000000000000000000000000000000000815260040160405180910390fd5b60036007600089815260200190815260200160002060070160006101000a81548160ff02191690836003811115610adf57610ade61413f565b5b02179055507f4594c47db0c98244c77381117521b87ef447039f12e475a6e144746980dddf723388604051610b15929190613b5f565b60405180910390a1505050506001600081905550505050565b848484600083111580610b42575060008211155b80610b4e575060008111155b15610b85576040517ff45911f000000000000000000000000000000000000000000000000000000000815260040160405180910390fd5b6000610b9085613314565b89610b9b9190613f8c565b905060008186610bab9190613f5b565b9050813414610bef576040517f08c379a0000000000000000000000000000000000000000000000000000000008152600401610be690613c1f565b60405180910390fd5b888114610c31576040517f08c379a0000000000000000000000000000000000000000000000000000000008152600401610c2890613cff565b60405180910390fd5b6040518061012001604052803373ffffffffffffffffffffffffffffffffffffffff168152602001600073ffffffffffffffffffffffffffffffffffffffff1681526020018b81526020018a81526020018981526020018842610c949190613f05565b815260200134815260200160006003811115610cb357610cb261413f565b5b815260200160006001811115610ccc57610ccb61413f565b5b81525060076000600454815260200190815260200160002060008201518160000160006101000a81548173ffffffffffffffffffffffffffffffffffffffff021916908373ffffffffffffffffffffffffffffffffffffffff16021790555060208201518160010160006101000a81548173ffffffffffffffffffffffffffffffffffffffff021916908373ffffffffffffffffffffffffffffffffffffffff16021790555060408201518160020155606082015181600301556080820151816004015560a0820151816005015560c0820151816006015560e08201518160070160006101000a81548160ff02191690836003811115610dcf57610dce61413f565b5b02179055506101008201518160070160016101000a81548160ff02191690836001811115610e0057610dff61413f565b5b0217905550905050600860003373ffffffffffffffffffffffffffffffffffffffff1673ffffffffffffffffffffffffffffffffffffffff168152602001908152602001600020600454908060018154018082558091505060019003906000526020600020016000909190919091505560046000815480929190610e8390614098565b919050556005819055507fb4d6d48bb8d143ce2746fb4bc49f19572e5cba3d7104586d38902e0e5e0a293d600554338c8c8c8c42610ec19190613f05565b34604051610ed59796959493929190613e7a565b60405180910390a150505050505050505050565b80600073ffffffffffffffffffffffffffffffffffffffff166007600083815260200190815260200160002060000160009054906101000a900473ffffffffffffffffffffffffffffffffffffffff1673ffffffffffffffffffffffffffffffffffffffff161415610f9257806040517fa7a86334000000000000000000000000000000000000000000000000000000008152600401610f899190613e5f565b60405180910390fd5b8160006003811115610fa757610fa661413f565b5b6007600083815260200190815260200160002060070160009054906101000a900460ff166003811115610fdd57610fdc61413f565b5b141580610fff5750426007600083815260200190815260200160002060050154115b1561104157806040517fa7a863340000000000000000000000000000000000000000000000000000000081526004016110389190613e5f565b60405180910390fd5b60026000541415611087576040517f08c379a000000000000000000000000000000000000000000000000000000000815260040161107e90613e3f565b60405180910390fd5b6002600081905550600060076000858152602001908152602001600020604051806101200160405290816000820160009054906101000a900473ffffffffffffffffffffffffffffffffffffffff1673ffffffffffffffffffffffffffffffffffffffff1673ffffffffffffffffffffffffffffffffffffffff1681526020016001820160009054906101000a900473ffffffffffffffffffffffffffffffffffffffff1673ffffffffffffffffffffffffffffffffffffffff1673ffffffffffffffffffffffffffffffffffffffff16815260200160028201548152602001600382015481526020016004820154815260200160058201548152602001600682015481526020016007820160009054906101000a900460ff1660038111156111b3576111b261413f565b5b60038111156111c5576111c461413f565b5b81526020016007820160019054906101000a900460ff1660018111156111ee576111ed61413f565b5b6001811115611200576111ff61413f565b5b8152505090506001808111156112195761121861413f565b5b81610100015160018111156112315761123061413f565b5b14611271576040517f08c379a000000000000000000000000000000000000000000000000000000000815260040161126890613c7f565b60405180910390fd5b6000600360009054906101000a900473ffffffffffffffffffffffffffffffffffffffff1673ffffffffffffffffffffffffffffffffffffffff166323b872dd333085608001516040518463ffffffff1660e01b81526004016112d693929190613a9b565b602060405180830381600087803b1580156112f057600080fd5b505af1158015611304573d6000803e3d6000fd5b505050506040513d601f19601f82011682018060405250810190611328919061359d565b905080611361576040517f90b8ec1800000000000000000000000000000000000000000000000000000000815260040160405180910390fd5b600360009054906101000a900473ffffffffffffffffffffffffffffffffffffffff1673ffffffffffffffffffffffffffffffffffffffff1663a9059cbb836000015184608001516040518363ffffffff1660e01b81526004016113c6929190613b5f565b602060405180830381600087803b1580156113e057600080fd5b505af11580156113f4573d6000803e3d6000fd5b505050506040513d601f19601f82011682018060405250810190611418919061359d565b905080611451576040517f90b8ec1800000000000000000000000000000000000000000000000000000000815260040160405180910390fd5b336007600087815260200190815260200160002060010160006101000a81548173ffffffffffffffffffffffffffffffffffffffff021916908373ffffffffffffffffffffffffffffffffffffffff16021790555060016007600087815260200190815260200160002060070160006101000a81548160ff021916908360038111156114e0576114df61413f565b5b0217905550600860003373ffffffffffffffffffffffffffffffffffffffff1673ffffffffffffffffffffffffffffffffffffffff1681526020019081526020016000208590806001815401808255809150506001900390600052602060002001600090919091909150557f37ec53526bc2576804345cb5bc1432fea67238ddbbdfbcc44972f115a50aaeb8338660405161157c929190613b5f565b60405180910390a150506001600081905550505050565b60045481565b60076020528060005260406000206000915090508060000160009054906101000a900473ffffffffffffffffffffffffffffffffffffffff16908060010160009054906101000a900473ffffffffffffffffffffffffffffffffffffffff16908060020154908060030154908060040154908060050154908060060154908060070160009054906101000a900460ff16908060070160019054906101000a900460ff16905089565b60066020528060005260406000206000915054906101000a900473ffffffffffffffffffffffffffffffffffffffff1681565b61167c6133e4565b73ffffffffffffffffffffffffffffffffffffffff1661169a612074565b73ffffffffffffffffffffffffffffffffffffffff16146116f0576040517f08c379a00000000000000000000000000000000000000000000000000000000081526004016116e790613d3f565b60405180910390fd5b6116fa60006133ec565b565b6008602052816000526040600020818154811061171857600080fd5b90600052602060002001600091509150505481565b60026000541415611773576040517f08c379a000000000000000000000000000000000000000000000000000000000815260040161176a90613e3f565b60405180910390fd5b6002600081905550600060076000838152602001908152602001600020604051806101200160405290816000820160009054906101000a900473ffffffffffffffffffffffffffffffffffffffff1673ffffffffffffffffffffffffffffffffffffffff1673ffffffffffffffffffffffffffffffffffffffff1681526020016001820160009054906101000a900473ffffffffffffffffffffffffffffffffffffffff1673ffffffffffffffffffffffffffffffffffffffff1673ffffffffffffffffffffffffffffffffffffffff16815260200160028201548152602001600382015481526020016004820154815260200160058201548152602001600682015481526020016007820160009054906101000a900460ff16600381111561189f5761189e61413f565b5b60038111156118b1576118b061413f565b5b81526020016007820160019054906101000a900460ff1660018111156118da576118d961413f565b5b60018111156118ec576118eb61413f565b5b815250509050600260038111156119065761190561413f565b5b8160e00151600381111561191d5761191c61413f565b5b1461195d576040517f08c379a000000000000000000000000000000000000000000000000000000000815260040161195490613c3f565b60405180910390fd5b428160a00151106119a3576040517f08c379a000000000000000000000000000000000000000000000000000000000815260040161199a90613bff565b60405180910390fd5b806000015173ffffffffffffffffffffffffffffffffffffffff163373ffffffffffffffffffffffffffffffffffffffff1614611a15576040517f08c379a0000000000000000000000000000000000000000000000000000000008152600401611a0c90613cdf565b60405180910390fd5b8060c00151471015611a5c576040517f08c379a0000000000000000000000000000000000000000000000000000000008152600401611a5390613c9f565b60405180910390fd5b60003373ffffffffffffffffffffffffffffffffffffffff168260c00151604051611a8690613a6b565b60006040518083038185875af1925050503d8060008114611ac3576040519150601f19603f3d011682016040523d82523d6000602084013e611ac8565b606091505b5050905080611b03576040517f90b8ec1800000000000000000000000000000000000000000000000000000000815260040160405180910390fd5b7f3aee8ada74be0c5855909afa48f40028acc23cc7a19e599455f986bcc99e259a33848460c00151604051611b3a93929190613b88565b60405180910390a15050600160008190555050565b81600073ffffffffffffffffffffffffffffffffffffffff166007600083815260200190815260200160002060000160009054906101000a900473ffffffffffffffffffffffffffffffffffffffff1673ffffffffffffffffffffffffffffffffffffffff161415611bf857806040517fa7a86334000000000000000000000000000000000000000000000000000000008152600401611bef9190613e5f565b60405180910390fd5b600060076000858152602001908152602001600020604051806101200160405290816000820160009054906101000a900473ffffffffffffffffffffffffffffffffffffffff1673ffffffffffffffffffffffffffffffffffffffff1673ffffffffffffffffffffffffffffffffffffffff1681526020016001820160009054906101000a900473ffffffffffffffffffffffffffffffffffffffff1673ffffffffffffffffffffffffffffffffffffffff1673ffffffffffffffffffffffffffffffffffffffff16815260200160028201548152602001600382015481526020016004820154815260200160058201548152602001600682015481526020016007820160009054906101000a900460ff166003811115611d1c57611d1b61413f565b5b6003811115611d2e57611d2d61413f565b5b81526020016007820160019054906101000a900460ff166001811115611d5757611d5661413f565b5b6001811115611d6957611d6861413f565b5b8152505090503373ffffffffffffffffffffffffffffffffffffffff166007600086815260200190815260200160002060000160009054906101000a900473ffffffffffffffffffffffffffffffffffffffff1673ffffffffffffffffffffffffffffffffffffffff1614611e13576040517f08c379a0000000000000000000000000000000000000000000000000000000008152600401611e0a90613cdf565b60405180910390fd5b60016003811115611e2757611e2661413f565b5b8160e001516003811115611e3e57611e3d61413f565b5b14611e7e576040517f08c379a0000000000000000000000000000000000000000000000000000000008152600401611e7590613d7f565b60405180910390fd5b428160a001511115611ec5576040517f08c379a0000000000000000000000000000000000000000000000000000000008152600401611ebc90613bff565b60405180910390fd5b6000611ed084613314565b8260400151611edf9190613f8c565b905060008185611eef9190613f5b565b905060006001811115611f0557611f0461413f565b5b8361010001516001811115611f1d57611f1c61413f565b5b1415611fad5782606001518110611f69576040517f08c379a0000000000000000000000000000000000000000000000000000000008152600401611f6090613d1f565b60405180910390fd5b60026007600088815260200190815260200160002060070160006101000a81548160ff02191690836003811115611fa357611fa261413f565b5b0217905550612033565b82606001518111611ff3576040517f08c379a0000000000000000000000000000000000000000000000000000000008152600401611fea90613dbf565b60405180910390fd5b60026007600088815260200190815260200160002060070160006101000a81548160ff0219169083600381111561202d5761202c61413f565b5b02179055505b7f5583b64bd3a1ba206c5d8bf9928893e3af27fd4289ae526d6c75e92b0bdd23243387604051612064929190613b5f565b60405180910390a1505050505050565b6000600160009054906101000a900473ffffffffffffffffffffffffffffffffffffffff16905090565b81600073ffffffffffffffffffffffffffffffffffffffff166007600083815260200190815260200160002060000160009054906101000a900473ffffffffffffffffffffffffffffffffffffffff1673ffffffffffffffffffffffffffffffffffffffff16141561214757806040517fa7a8633400000000000000000000000000000000000000000000000000000000815260040161213e9190613e5f565b60405180910390fd5b6002600054141561218d576040517f08c379a000000000000000000000000000000000000000000000000000000000815260040161218490613e3f565b60405180910390fd5b6002600081905550600060076000858152602001908152602001600020604051806101200160405290816000820160009054906101000a900473ffffffffffffffffffffffffffffffffffffffff1673ffffffffffffffffffffffffffffffffffffffff1673ffffffffffffffffffffffffffffffffffffffff1681526020016001820160009054906101000a900473ffffffffffffffffffffffffffffffffffffffff1673ffffffffffffffffffffffffffffffffffffffff1673ffffffffffffffffffffffffffffffffffffffff16815260200160028201548152602001600382015481526020016004820154815260200160058201548152602001600682015481526020016007820160009054906101000a900460ff1660038111156122b9576122b861413f565b5b60038111156122cb576122ca61413f565b5b81526020016007820160019054906101000a900460ff1660018111156122f4576122f361413f565b5b60018111156123065761230561413f565b5b815250509050806020015173ffffffffffffffffffffffffffffffffffffffff163373ffffffffffffffffffffffffffffffffffffffff161461237e576040517f08c379a000000000000000000000000000000000000000000000000000000000815260040161237590613d5f565b60405180910390fd5b600160038111156123925761239161413f565b5b8160e0015160038111156123a9576123a861413f565b5b146123e9576040517f08c379a00000000000000000000000000000000000000000000000000000000081526004016123e090613d7f565b60405180910390fd5b428160a001511061242f576040517f08c379a000000000000000000000000000000000000000000000000000000000815260040161242690613e1f565b60405180910390fd5b600061243a84613314565b82604001516124499190613f8c565b9050600081856124599190613f5b565b9050826060015181106124a1576040517f08c379a000000000000000000000000000000000000000000000000000000000815260040161249890613c5f565b60405180910390fd5b6000600360009054906101000a900473ffffffffffffffffffffffffffffffffffffffff1673ffffffffffffffffffffffffffffffffffffffff166323b872dd333087606001516040518463ffffffff1660e01b815260040161250693929190613a9b565b602060405180830381600087803b15801561252057600080fd5b505af1158015612534573d6000803e3d6000fd5b505050506040513d601f19601f82011682018060405250810190612558919061359d565b905080612591576040517f90b8ec1800000000000000000000000000000000000000000000000000000000815260040160405180910390fd5b3373ffffffffffffffffffffffffffffffffffffffff168460c001516040516125b990613a6b565b60006040518083038185875af1925050503d80600081146125f6576040519150601f19603f3d011682016040523d82523d6000602084013e6125fb565b606091505b50508091505080612638576040517f90b8ec1800000000000000000000000000000000000000000000000000000000815260040160405180910390fd5b600360009054906101000a900473ffffffffffffffffffffffffffffffffffffffff1673ffffffffffffffffffffffffffffffffffffffff1663a9059cbb856000015186606001516040518363ffffffff1660e01b815260040161269d929190613b5f565b602060405180830381600087803b1580156126b757600080fd5b505af11580156126cb573d6000803e3d6000fd5b505050506040513d601f19601f820116820180604052508101906126ef919061359d565b905080612728576040517f90b8ec1800000000000000000000000000000000000000000000000000000000815260040160405180910390fd5b60036007600089815260200190815260200160002060070160006101000a81548160ff021916908360038111156127625761276161413f565b5b02179055507ff391a2d074664c5a6692a790e7f76d527ee1ebc216f089d28bfbb26a27da8e473388604051612798929190613b5f565b60405180910390a1505050506001600081905550505050565b8484846000831115806127c5575060008211155b806127d1575060008111155b15612808576040517ff45911f000000000000000000000000000000000000000000000000000000000815260040160405180910390fd5b600061281385613314565b8961281e9190613f8c565b90506000818661282e9190613f5b565b9050813414612872576040517f08c379a000000000000000000000000000000000000000000000000000000000815260040161286990613bbf565b60405180910390fd5b8881146128b4576040517f08c379a00000000000000000000000000000000000000000000000000000000081526004016128ab90613dff565b60405180910390fd5b6040518061012001604052803373ffffffffffffffffffffffffffffffffffffffff168152602001600073ffffffffffffffffffffffffffffffffffffffff1681526020018b81526020018a815260200189815260200188426129179190613f05565b8152602001348152602001600060038111156129365761293561413f565b5b815260200160018081111561294e5761294d61413f565b5b81525060076000600454815260200190815260200160002060008201518160000160006101000a81548173ffffffffffffffffffffffffffffffffffffffff021916908373ffffffffffffffffffffffffffffffffffffffff16021790555060208201518160010160006101000a81548173ffffffffffffffffffffffffffffffffffffffff021916908373ffffffffffffffffffffffffffffffffffffffff16021790555060408201518160020155606082015181600301556080820151816004015560a0820151816005015560c0820151816006015560e08201518160070160006101000a81548160ff02191690836003811115612a5157612a5061413f565b5b02179055506101008201518160070160016101000a81548160ff02191690836001811115612a8257612a8161413f565b5b0217905550905050600860003373ffffffffffffffffffffffffffffffffffffffff1673ffffffffffffffffffffffffffffffffffffffff168152602001908152602001600020600454908060018154018082558091505060019003906000526020600020016000909190919091505560046000815480929190612b0590614098565b919050556005819055507fadc22b4a7663e5b60bc9428752fa50a98c83b06c8dffdc61a19d4265f97eddb9600554338c8c8c8c42612b439190613f05565b34604051612b579796959493929190613e7a565b60405180910390a150505050505050505050565b60055481565b80600073ffffffffffffffffffffffffffffffffffffffff166007600083815260200190815260200160002060000160009054906101000a900473ffffffffffffffffffffffffffffffffffffffff1673ffffffffffffffffffffffffffffffffffffffff161415612c1a57806040517fa7a86334000000000000000000000000000000000000000000000000000000008152600401612c119190613e5f565b60405180910390fd5b8160006003811115612c2f57612c2e61413f565b5b6007600083815260200190815260200160002060070160009054906101000a900460ff166003811115612c6557612c6461413f565b5b141580612c875750426007600083815260200190815260200160002060050154115b15612cc957806040517fa7a86334000000000000000000000000000000000000000000000000000000008152600401612cc09190613e5f565b60405180910390fd5b60026000541415612d0f576040517f08c379a0000000000000000000000000000000000000000000000000000000008152600401612d0690613e3f565b60405180910390fd5b6002600081905550600060076000858152602001908152602001600020604051806101200160405290816000820160009054906101000a900473ffffffffffffffffffffffffffffffffffffffff1673ffffffffffffffffffffffffffffffffffffffff1673ffffffffffffffffffffffffffffffffffffffff1681526020016001820160009054906101000a900473ffffffffffffffffffffffffffffffffffffffff1673ffffffffffffffffffffffffffffffffffffffff1673ffffffffffffffffffffffffffffffffffffffff16815260200160028201548152602001600382015481526020016004820154815260200160058201548152602001600682015481526020016007820160009054906101000a900460ff166003811115612e3b57612e3a61413f565b5b6003811115612e4d57612e4c61413f565b5b81526020016007820160019054906101000a900460ff166001811115612e7657612e7561413f565b5b6001811115612e8857612e8761413f565b5b81525050905060006001811115612ea257612ea161413f565b5b8161010001516001811115612eba57612eb961413f565b5b14612efa576040517f08c379a0000000000000000000000000000000000000000000000000000000008152600401612ef190613ddf565b60405180910390fd5b6000600360009054906101000a900473ffffffffffffffffffffffffffffffffffffffff1673ffffffffffffffffffffffffffffffffffffffff166323b872dd333085608001516040518463ffffffff1660e01b8152600401612f5f93929190613a9b565b602060405180830381600087803b158015612f7957600080fd5b505af1158015612f8d573d6000803e3d6000fd5b505050506040513d601f19601f82011682018060405250810190612fb1919061359d565b905080612fea576040517f90b8ec1800000000000000000000000000000000000000000000000000000000815260040160405180910390fd5b600360009054906101000a900473ffffffffffffffffffffffffffffffffffffffff1673ffffffffffffffffffffffffffffffffffffffff1663a9059cbb836000015184608001516040518363ffffffff1660e01b815260040161304f929190613b5f565b602060405180830381600087803b15801561306957600080fd5b505af115801561307d573d6000803e3d6000fd5b505050506040513d601f19601f820116820180604052508101906130a1919061359d565b9050806130da576040517f90b8ec1800000000000000000000000000000000000000000000000000000000815260040160405180910390fd5b336007600087815260200190815260200160002060010160006101000a81548173ffffffffffffffffffffffffffffffffffffffff021916908373ffffffffffffffffffffffffffffffffffffffff16021790555060016007600087815260200190815260200160002060070160006101000a81548160ff021916908360038111156131695761316861413f565b5b0217905550600860003373ffffffffffffffffffffffffffffffffffffffff1673ffffffffffffffffffffffffffffffffffffffff1681526020019081526020016000208590806001815401808255809150506001900390600052602060002001600090919091909150557fa32eb13541d220f827ac4eb6dc04828fd3884b92154f79d9cac90957a2f309f43386604051613205929190613b5f565b60405180910390a150506001600081905550505050565b6132246133e4565b73ffffffffffffffffffffffffffffffffffffffff16613242612074565b73ffffffffffffffffffffffffffffffffffffffff1614613298576040517f08c379a000000000000000000000000000000000000000000000000000000000815260040161328f90613d3f565b60405180910390fd5b600073ffffffffffffffffffffffffffffffffffffffff168173ffffffffffffffffffffffffffffffffffffffff161415613308576040517f08c379a00000000000000000000000000000000000000000000000000000000081526004016132ff90613bdf565b60405180910390fd5b613311816133ec565b50565b600080600260009054906101000a900473ffffffffffffffffffffffffffffffffffffffff1673ffffffffffffffffffffffffffffffffffffffff1663feaf968c6040518163ffffffff1660e01b815260040160a06040518083038186803b15801561337f57600080fd5b505afa158015613393573d6000803e3d6000fd5b505050506040513d601f19601f820116820180604052508101906133b791906136b2565b505050915050670de0b6b3a764000083826133d29190613f8c565b6133dc9190613f5b565b915050919050565b600033905090565b6000600160009054906101000a900473ffffffffffffffffffffffffffffffffffffffff16905081600160006101000a81548173ffffffffffffffffffffffffffffffffffffffff021916908373ffffffffffffffffffffffffffffffffffffffff1602179055508173ffffffffffffffffffffffffffffffffffffffff168173ffffffffffffffffffffffffffffffffffffffff167f8be0079c531659141344cd1fd0a4f28419497f9722a3daafe3b4186f6b6457e060405160405180910390a35050565b6000813590506134c181614547565b92915050565b6000815190506134d68161455e565b92915050565b6000815190506134eb81614575565b92915050565b6000813590506135008161458c565b92915050565b6000815190506135158161458c565b92915050565b60008151905061352a816145a3565b92915050565b6000602082840312156135465761354561416e565b5b6000613554848285016134b2565b91505092915050565b600080604083850312156135745761357361416e565b5b6000613582858286016134b2565b9250506020613593858286016134f1565b9150509250929050565b6000602082840312156135b3576135b261416e565b5b60006135c1848285016134c7565b91505092915050565b6000602082840312156135e0576135df61416e565b5b60006135ee848285016134f1565b91505092915050565b6000806040838503121561360e5761360d61416e565b5b600061361c858286016134f1565b925050602061362d858286016134f1565b9150509250929050565b600080600080600060a086880312156136535761365261416e565b5b6000613661888289016134f1565b9550506020613672888289016134f1565b9450506040613683888289016134f1565b9350506060613694888289016134f1565b92505060806136a5888289016134f1565b9150509295509295909350565b600080600080600060a086880312156136ce576136cd61416e565b5b60006136dc8882890161351b565b95505060206136ed888289016134dc565b94505060406136fe88828901613506565b935050606061370f88828901613506565b92505060806137208882890161351b565b9150509295509295909350565b61373681613fe6565b82525050565b61374581614074565b82525050565b61375481614086565b82525050565b6000613767601d83613ef4565b915061377282614173565b602082019050919050565b600061378a602683613ef4565b91506137958261419c565b604082019050919050565b60006137ad600b83613ef4565b91506137b8826141eb565b602082019050919050565b60006137d0602583613ef4565b91506137db82614214565b604082019050919050565b60006137f3600c83613ef4565b91506137fe82614263565b602082019050919050565b6000613816601883613ef4565b91506138218261428c565b602082019050919050565b6000613839600983613ef4565b9150613844826142b5565b602082019050919050565b600061385c600e83613ef4565b9150613867826142de565b602082019050919050565b600061387f601683613ef4565b915061388a82614307565b602082019050919050565b60006138a2600a83613ef4565b91506138ad82614330565b602082019050919050565b60006138c5601a83613ef4565b91506138d082614359565b602082019050919050565b60006138e8601a83613ef4565b91506138f382614382565b602082019050919050565b600061390b602083613ef4565b9150613916826143ab565b602082019050919050565b600061392e600983613ef4565b9150613939826143d4565b602082019050919050565b6000613951600c83613ef4565b915061395c826143fd565b602082019050919050565b6000613974601783613ef4565b915061397f82614426565b602082019050919050565b6000613997600083613ee9565b91506139a28261444f565b600082019050919050565b60006139ba601d83613ef4565b91506139c582614452565b602082019050919050565b60006139dd600a83613ef4565b91506139e88261447b565b602082019050919050565b6000613a00601983613ef4565b9150613a0b826144a4565b602082019050919050565b6000613a23600f83613ef4565b9150613a2e826144cd565b602082019050919050565b6000613a46601f83613ef4565b9150613a51826144f6565b602082019050919050565b613a6581614054565b82525050565b6000613a768261398a565b9150819050919050565b6000602082019050613a95600083018461372d565b92915050565b6000606082019050613ab0600083018661372d565b613abd602083018561372d565b613aca6040830184613a5c565b949350505050565b600061012082019050613ae8600083018c61372d565b613af5602083018b61372d565b613b02604083018a613a5c565b613b0f6060830189613a5c565b613b1c6080830188613a5c565b613b2960a0830187613a5c565b613b3660c0830186613a5c565b613b4360e083018561373c565b613b5161010083018461374b565b9a9950505050505050505050565b6000604082019050613b74600083018561372d565b613b816020830184613a5c565b9392505050565b6000606082019050613b9d600083018661372d565b613baa6020830185613a5c565b613bb76040830184613a5c565b949350505050565b60006020820190508181036000830152613bd88161375a565b9050919050565b60006020820190508181036000830152613bf88161377d565b9050919050565b60006020820190508181036000830152613c18816137a0565b9050919050565b60006020820190508181036000830152613c38816137c3565b9050919050565b60006020820190508181036000830152613c58816137e6565b9050919050565b60006020820190508181036000830152613c7881613809565b9050919050565b60006020820190508181036000830152613c988161382c565b9050919050565b60006020820190508181036000830152613cb88161384f565b9050919050565b60006020820190508181036000830152613cd881613872565b9050919050565b60006020820190508181036000830152613cf881613895565b9050919050565b60006020820190508181036000830152613d18816138b8565b9050919050565b60006020820190508181036000830152613d38816138db565b9050919050565b60006020820190508181036000830152613d58816138fe565b9050919050565b60006020820190508181036000830152613d7881613921565b9050919050565b60006020820190508181036000830152613d9881613944565b9050919050565b60006020820190508181036000830152613db881613967565b9050919050565b60006020820190508181036000830152613dd8816139ad565b9050919050565b60006020820190508181036000830152613df8816139d0565b9050919050565b60006020820190508181036000830152613e18816139f3565b9050919050565b60006020820190508181036000830152613e3881613a16565b9050919050565b60006020820190508181036000830152613e5881613a39565b9050919050565b6000602082019050613e746000830184613a5c565b92915050565b600060e082019050613e8f600083018a613a5c565b613e9c602083018961372d565b613ea96040830188613a5c565b613eb66060830187613a5c565b613ec36080830186613a5c565b613ed060a0830185613a5c565b613edd60c0830184613a5c565b98975050505050505050565b600081905092915050565b600082825260208201905092915050565b6000613f1082614054565b9150613f1b83614054565b9250827fffffffffffffffffffffffffffffffffffffffffffffffffffffffffffffffff03821115613f5057613f4f6140e1565b5b828201905092915050565b6000613f6682614054565b9150613f7183614054565b925082613f8157613f80614110565b5b828204905092915050565b6000613f9782614054565b9150613fa283614054565b9250817fffffffffffffffffffffffffffffffffffffffffffffffffffffffffffffffff0483118215151615613fdb57613fda6140e1565b5b828202905092915050565b6000613ff182614034565b9050919050565b60008115159050919050565b60008190506140128261451f565b919050565b600081905061402582614533565b919050565b6000819050919050565b600073ffffffffffffffffffffffffffffffffffffffff82169050919050565b6000819050919050565b600069ffffffffffffffffffff82169050919050565b600061407f82614004565b9050919050565b600061409182614017565b9050919050565b60006140a382614054565b91507fffffffffffffffffffffffffffffffffffffffffffffffffffffffffffffffff8214156140d6576140d56140e1565b5b600182019050919050565b7f4e487b7100000000000000000000000000000000000000000000000000000000600052601160045260246000fd5b7f4e487b7100000000000000000000000000000000000000000000000000000000600052601260045260246000fd5b7f4e487b7100000000000000000000000000000000000000000000000000000000600052602160045260246000fd5b600080fd5b7f5055543a204554482056414c5545204d55535420455155414c20444149000000600082015250565b7f4f776e61626c653a206e6577206f776e657220697320746865207a65726f206160008201527f6464726573730000000000000000000000000000000000000000000000000000602082015250565b7f4e4f542045585049524544000000000000000000000000000000000000000000600082015250565b7f43414c4c3a204554482056414c5545204d55535420455155414c2053504f542060008201527f5052494345000000000000000000000000000000000000000000000000000000602082015250565b7f4e4f542043414e43454c45440000000000000000000000000000000000000000600082015250565b7f4d555354204245204c455353205448414e20535452494b450000000000000000600082015250565b7f4e4f542041205055540000000000000000000000000000000000000000000000600082015250565b7f4e4f5420454e4f55474820455448000000000000000000000000000000000000600082015250565b7f4e4f5420454e4f554748204554482042414c414e434500000000000000000000600082015250565b7f4e4f542057524954455200000000000000000000000000000000000000000000600082015250565b7f43414c4c3a2057524f4e472045544820434f4c4c41544552414c000000000000600082015250565b7f5052494345204e4f54204c455353205448414e20535452494b45000000000000600082015250565b7f4f776e61626c653a2063616c6c6572206973206e6f7420746865206f776e6572600082015250565b7f4e4f542042555945520000000000000000000000000000000000000000000000600082015250565b7f4e4556455220424f554748540000000000000000000000000000000000000000600082015250565b7f4e4f542047524541544552205448414e20535452494b45000000000000000000600082015250565b50565b7f5052494345204e4f542047524541544552205448414e20535452494b45000000600082015250565b7f4e4f5420412043414c4c00000000000000000000000000000000000000000000600082015250565b7f5055543a2057524f4e472045544820434f4c4c41544552414c00000000000000600082015250565b7f484153204e4f5420455850495245440000000000000000000000000000000000600082015250565b7f5265656e7472616e637947756172643a207265656e7472616e742063616c6c00600082015250565b600481106145305761452f61413f565b5b50565b600281106145445761454361413f565b5b50565b61455081613fe6565b811461455b57600080fd5b50565b61456781613ff8565b811461457257600080fd5b50565b61457e8161402a565b811461458957600080fd5b50565b61459581614054565b81146145a057600080fd5b50565b6145ac8161405e565b81146145b757600080fd5b5056fea2646970667358221220943ad9cc280bda30c5ed1c312a9db22fe6a9e22b42ca040736f4763d5c32024264736f6c63430008070033",
  "devdoc": {
    "kind": "dev",
    "methods": {
      "buyCallOption(uint256)": {
        "details": "Buy an open call option.",
        "params": {
          "_optionId": "would need to be used to access the correct option. Every buyer must have a seller."
        }
      },
      "buyPutOption(uint256)": {
        "details": "Buy an open put option.",
        "params": {
          "_optionId": "Would need to be used to access the correct option. Every buyer must have a seller."
        }
      },
      "constructor": {
        "details": "CHAINLINK PRICEFEEDS & DAI ADDRESSES NETWORK: KOVAN DAI/ETH Address: 0x22B58f1EbEDfCA50feF632bD73368b2FdA96D541 Kovan DAI Addr: 0x4f96fe3b7a6cf9725f59d353f723c1bdb64ca6aa NETWORK: RINKEBY DAI/ETH Address: 0x74825DbC8BF76CC4e9494d0ecB210f676Efa001D Rinkeby DAI Addr: 0x4f96fe3b7a6cf9725f59d353f723c1bdb64ca6aa (faucet token)"
      },
      "exerciseCallOption(uint256,uint256)": {
        "details": "The buyer can exercise a call option at expiration.",
        "params": {
          "_daiAmount": "is the amount of dai",
          "_optionId": "would need to be used to access the correct option. Every buyer must have a seller."
        }
      },
      "exercisePutOption(uint256,uint256)": {
        "details": "The buyer can exercise a put option at expiration.",
        "params": {
          "_daiAmount": "is the amount of dai",
          "_optionId": "would need to be used to access the correct option. Every buyer must have a seller."
        }
      },
      "getPriceFeed(uint256)": {
        "details": "get the DaiEthPriceFeed (18 decimals) from Chainlink (look at consrtuctor for contract addresses)",
        "params": {
          "_amountInDai": "the amount of Dai"
        }
      },
      "optionExpiresWorthless(uint256,uint256)": {
        "details": "The writer can cancel options that have expired and are worthless",
        "params": {
          "_daiAmount": "is the amount of dai",
          "_optionId": "would need to be used to access the correct option. Every buyer must have a seller."
        }
      },
      "owner()": {
        "details": "Returns the address of the current owner."
      },
      "renounceOwnership()": {
        "details": "Leaves the contract without owner. It will not be possible to call `onlyOwner` functions anymore. Can only be called by the current owner. NOTE: Renouncing ownership will leave the contract without an owner, thereby removing any functionality that is only available to the owner."
      },
      "retrieveExpiredFunds(uint256)": {
        "details": "If options are worthless(cancelled), then writer can get back ETH collateral",
        "params": {
          "_optionId": "would need to be used to access the correct option. Every buyer must have a seller."
        }
      },
      "transferOwnership(address)": {
        "details": "Transfers ownership of the contract to a new account (`newOwner`). Can only be called by the current owner."
      },
      "writeCallOption(uint256,uint256,uint256,uint256,uint256)": {
        "details": "A seller writes a call option. ETH is sent to contract for collateral.",
        "params": {
          "_amount": "is the number of options to be written.",
          "_daiAmount": "is the amount of dai",
          "_daysToExpiry": "days until option expires and can then be exercised or cancelled.",
          "_premiumDue": "the cost of the option call paid by buyer in dai. (For dapp, prob determined on frontend and NOT by the WRITER)",
          "_strike": "is the price of ETH in DAI. Here, strike == current spot price,(for a Dapp, this'd probably be best deteremined on frontend)"
        }
      },
      "writePutOption(uint256,uint256,uint256,uint256,uint256)": {
        "details": "A seller writes a put option. ETH is sent to contract for collateral.",
        "params": {
          "_amount": "is the number of options to be written.",
          "_daiAmount": "is the amount of dai",
          "_daysToExpiry": "days until option expires and can then be exercised or cancelled.",
          "_premiumDue": "the cost of the option call paid by buyer (in DAI).",
          "_strike": "is the price of ETH in DAI. Here, strike == current spot price."
        }
      }
    },
    "title": "Covered European-Style Options",
    "version": 1
  },
  "userdoc": {
    "errors": {
      "TransferFailed()": [
        {
          "notice": "ERRORS///"
        }
      ]
    },
    "events": {
      "CallOptionOpen(uint256,address,uint256,uint256,uint256,uint256,uint256)": {
        "notice": "EVENTS///"
      }
    },
    "kind": "user",
    "methods": {},
    "notice": "The purpose of this is to be a basic option market implementation. It ignores a lot of option specifis (like the Greeks, for example). This Smart Contract allows for the buying/writing of Covered Calls & Cash-Secured Puts with ETH as the underlying. Calls: Let you buy an asset(underlying) at a set price(the strike) on or after a specific date(expiration). Puts: Let you sell an asset(underlying) at a set price(the strike) on or after a specific date (expiration). Covered Call: The seller(writer) transfers ETH for collateral(the underlying) and writes a Covered Call. The buyer pays premium w DAI. Covered Call: At expiration, the buyer has the right to ETH at strike price if spot(market) price is greater than strike price. Settles with DAI. Cash-Secured Put: The writer transfers ETH for collateral. Buyer pays premium w DAI. Cash-Secured Put: At expiration, if market price less than strike, buyer has right to sell ETH at the strike to the writer. Settles w DAI. All options have the following properties: Strike price - The price at which the underlying asset can either be bought or sold. In this contract the strike == the initial spot price for simplicity. Expiry - The date at which the option expires. Premium - The price of the options contract that buyer pays. This smart contract supports two strategies for the option writer: 1. Covered Calls - You sell upside on ETH while you hold it for yield, which comes from premium (Netural/Bullish on ETH). 2. Cash-secured Puts - You earn yield on ETH (Bullish).",
    "version": 1
  },
  "storageLayout": {
    "storage": [
      {
        "astId": 161,
        "contract": "contracts/Options.sol:Options",
        "label": "_status",
        "offset": 0,
        "slot": "0",
        "type": "t_uint256"
      },
      {
        "astId": 53,
        "contract": "contracts/Options.sol:Options",
        "label": "_owner",
        "offset": 0,
        "slot": "1",
        "type": "t_address"
      },
      {
        "astId": 1765,
        "contract": "contracts/Options.sol:Options",
        "label": "daiEthPriceFeed",
        "offset": 0,
        "slot": "2",
        "type": "t_contract(AggregatorV3Interface)45"
      },
      {
        "astId": 1768,
        "contract": "contracts/Options.sol:Options",
        "label": "dai",
        "offset": 0,
        "slot": "3",
        "type": "t_contract(IERC20)856"
      },
      {
        "astId": 1770,
        "contract": "contracts/Options.sol:Options",
        "label": "s_optionCounter",
        "offset": 0,
        "slot": "4",
        "type": "t_uint256"
      },
      {
        "astId": 1772,
        "contract": "contracts/Options.sol:Options",
        "label": "s_optionId",
        "offset": 0,
        "slot": "5",
        "type": "t_uint256"
      },
      {
        "astId": 1776,
        "contract": "contracts/Options.sol:Options",
        "label": "s_tokenToEthFeed",
        "offset": 0,
        "slot": "6",
        "type": "t_mapping(t_address,t_address)"
      },
      {
        "astId": 1781,
        "contract": "contracts/Options.sol:Options",
        "label": "s_optionIdToOption",
        "offset": 0,
        "slot": "7",
        "type": "t_mapping(t_uint256,t_struct(Option)1815_storage)"
      },
      {
        "astId": 1786,
        "contract": "contracts/Options.sol:Options",
        "label": "s_tradersPosition",
        "offset": 0,
        "slot": "8",
        "type": "t_mapping(t_address,t_array(t_uint256)dyn_storage)"
      }
    ],
    "types": {
      "t_address": {
        "encoding": "inplace",
        "label": "address",
        "numberOfBytes": "20"
      },
      "t_array(t_uint256)dyn_storage": {
        "base": "t_uint256",
        "encoding": "dynamic_array",
        "label": "uint256[]",
        "numberOfBytes": "32"
      },
      "t_contract(AggregatorV3Interface)45": {
        "encoding": "inplace",
        "label": "contract AggregatorV3Interface",
        "numberOfBytes": "20"
      },
      "t_contract(IERC20)856": {
        "encoding": "inplace",
        "label": "contract IERC20",
        "numberOfBytes": "20"
      },
      "t_enum(OptionState)1791": {
        "encoding": "inplace",
        "label": "enum Options.OptionState",
        "numberOfBytes": "1"
      },
      "t_enum(OptionType)1794": {
        "encoding": "inplace",
        "label": "enum Options.OptionType",
        "numberOfBytes": "1"
      },
      "t_mapping(t_address,t_address)": {
        "encoding": "mapping",
        "key": "t_address",
        "label": "mapping(address => address)",
        "numberOfBytes": "32",
        "value": "t_address"
      },
      "t_mapping(t_address,t_array(t_uint256)dyn_storage)": {
        "encoding": "mapping",
        "key": "t_address",
        "label": "mapping(address => uint256[])",
        "numberOfBytes": "32",
        "value": "t_array(t_uint256)dyn_storage"
      },
      "t_mapping(t_uint256,t_struct(Option)1815_storage)": {
        "encoding": "mapping",
        "key": "t_uint256",
        "label": "mapping(uint256 => struct Options.Option)",
        "numberOfBytes": "32",
        "value": "t_struct(Option)1815_storage"
      },
      "t_struct(Option)1815_storage": {
        "encoding": "inplace",
        "label": "struct Options.Option",
        "members": [
          {
            "astId": 1796,
            "contract": "contracts/Options.sol:Options",
            "label": "writer",
            "offset": 0,
            "slot": "0",
            "type": "t_address"
          },
          {
            "astId": 1798,
            "contract": "contracts/Options.sol:Options",
            "label": "buyer",
            "offset": 0,
            "slot": "1",
            "type": "t_address"
          },
          {
            "astId": 1800,
            "contract": "contracts/Options.sol:Options",
            "label": "amount",
            "offset": 0,
            "slot": "2",
            "type": "t_uint256"
          },
          {
            "astId": 1802,
            "contract": "contracts/Options.sol:Options",
            "label": "strike",
            "offset": 0,
            "slot": "3",
            "type": "t_uint256"
          },
          {
            "astId": 1804,
            "contract": "contracts/Options.sol:Options",
            "label": "premiumDue",
            "offset": 0,
            "slot": "4",
            "type": "t_uint256"
          },
          {
            "astId": 1806,
            "contract": "contracts/Options.sol:Options",
            "label": "expiration",
            "offset": 0,
            "slot": "5",
            "type": "t_uint256"
          },
          {
            "astId": 1808,
            "contract": "contracts/Options.sol:Options",
            "label": "collateral",
            "offset": 0,
            "slot": "6",
            "type": "t_uint256"
          },
          {
            "astId": 1811,
            "contract": "contracts/Options.sol:Options",
            "label": "optionState",
            "offset": 0,
            "slot": "7",
            "type": "t_enum(OptionState)1791"
          },
          {
            "astId": 1814,
            "contract": "contracts/Options.sol:Options",
            "label": "optionType",
            "offset": 1,
            "slot": "7",
            "type": "t_enum(OptionType)1794"
          }
        ],
        "numberOfBytes": "256"
      },
      "t_uint256": {
        "encoding": "inplace",
        "label": "uint256",
        "numberOfBytes": "32"
      }
    }
  }
}